:020000040800F2
:1000000060060020A1010008A9010008AB0100085A
:10001000AD010008AF010008B101000800000000B8
:10002000000000000000000000000000B301000814
:10003000B501000800000000B7010008B901000880
:10004000BB010008BB010008BB010008BB010008A0
:10005000BB010008BB010008BB010008BB01000890
:10006000BB010008BB010008BB010008BB01000880
:10007000BB010008BB010008BB010008BB01000870
:10008000BB010008BB010008BB0100080000000024
:10009000000000000000000000000000BB0100089C
:1000A000BB010008BB010008BB010008BB01000840
:1000B000BB010008BB010008BB010008BB01000830
:1000C000BB010008BB010008BB010008BB01000820
:1000D000BB010008BB010008BB010008BB01000810
:1000E000BB010008BB010008BB01000800000000C4
:1000F0000000000000000000000000000000000000
:1001000000000000000000000000000000000000EF
:100110000000000000000000BB010008BB01000857
:1001200000F002F800F02CF80AA090E8000C8244DD
:100130008344AAF10107DA4501D100F021F8AFF2BA
:10014000090EBAE80F0013F0010F18BFFB1A43F0B5
:1001500001031847740400008404000000230024F5
:1001600000250026103A28BF78C1FBD8520728BFC7
:1001700030C148BF0B6070471FB51FBD10B510BD23
:1001800000F031F81146FFF7F7FF00F099F900F0A1
:100190004FF803B4FFF7F2FF03BC00F057F800007C
:1001A0000948804709480047FEE7FEE7FEE7FEE70B
:1001B000FEE7FEE7FEE7FEE7FEE7FEE70448054947
:1001C000054A064B70470000FD03000821010008A6
:1001D0006000002060060020600200206002002015
:1001E000704770477047754600F02CF8AE46050022
:1001F0006946534620F00700854618B020B5FFF742
:10020000DDFFBDE820404FF000064FF000074FF043
:1002100000084FF0000B21F00701AC46ACE8C00924
:10022000ACE8C009ACE8C009ACE8C0098D4670472D
:1002300010B50446AFF300802046BDE81040FFF73C
:10024000A8BF0000004870470000002001491820A6
:10025000ABBEFEE726000200704700000020074901
:10026000074A51600749116003E00549096801F038
:100270000070B0F1007FF8D1704700000200050067
:10028000001002408100010102490968C1F3C01059
:1002900070470000080C01400348806940F01C00D2
:1002A000014988617047000000100240134800684F
:1002B00040F04070114908600846006820F0406036
:1002C0000860081D006840F44070091D0860084679
:1002D000006820F440600860081F006820F040506B
:1002E000091F08600846006820F0004008600846C2
:1002F000006840F08040086070470000000C01403A
:100300000B490968C1F30021094A126802F400721E
:1003100041EA1221074A926802F4805241EA92218E
:10032000054A126802F0200241EA9200704700007C
:10033000080C0140001001400808014010B500F011
:1003400001F810BD0CB50020019000902A4800680B
:1003500040F480302849086000BF2748006800F456
:10036000003000900198401C0190009818B9019845
:10037000B0F5A06FF1D12048006800F4003010B152
:100380000120009001E0002000900098012831D168
:10039000194840681849486008464068486008465F
:1003A000406848600846406820F47C104860084671
:1003B000406840F4981048600846006840F080703B
:1003C000086000BF0C48006800F000700028F9D0F9
:1003D0000948406820F00300074948600846406823
:1003E00040F00200486000BF0348406800F00C0085
:1003F0000828F9D10CBD00000010024010B51448C7
:10040000006840F001001249086008464068114940
:1004100008400F494860084600680F4908400C49E9
:1004200008600846006820F480200860084640689C
:1004300020F4FE0048604FF41F0088600020C8626E
:10044000FFF77CFF4FF000600449086010BD00001A
:10045000001002400000FFF8FFFFF6FE08ED00E08C
:10046000002100BF00E0491C8142FCD3704700001E
:100470000E48806940F01C000C4988610C484068B7
:1004800040F033000A4948600846406820F0CC003C
:10049000486008480068084908430649086008465B
:1004A0000068064908400349086070470010024090
:1004B0000010014004080140303303003F33F3FFD4
:1004C000FFF7CCFEFFF7E8FEFFF7D2FFFFF7EEFEE7
:1004D000154E304600F02CF80F2000F065F822E0B1
:1004E000FFF7D2FEC5B2012D1DD1072000F05CF848
:1004F000FFF706FFA04216D0FFF702FF0446072CC5
:1005000011D10A48006840F48060084908606420FE
:10051000FFF7A6FF0548006820F4806003490860E3
:100520000F2000F041F8DBE731E920000C0C01401E
:1005300070B50646182408E026FA04F000F001051C
:10054000284600F009F8601E04B2002CF4DA41F2EB
:100550008830FFF785FF70BD70B50446114800680C
:1005600040F040000F4908600220FFF779FF0D4876
:1005700000684FF6BF7100EA0105402000EA8415CB
:10058000084805604FF41670FFF76AFF05480068D9
:100590004FF6BF710840034908600220FFF760FF73
:1005A00070BD00000C0C0140064A12684EF2FF13A9
:1005B00002EA03014FF4F05202EA4021014A1160BD
:1005C000704700000C080140D8050008000000201A
:0805D000600600005C01000858
:04000005080001A14D
:00000001FF
