Component: ARM Compiler 6.13.1 Tool: armlink [5d895400]

==============================================================================

Section Cross References

    stm32f10x_it.o(.ARM.exidx.text.NMI_Handler) refers to stm32f10x_it.o(.text.NMI_Handler) for [Anonymous Symbol]
    stm32f10x_it.o(.ARM.exidx.text.HardFault_Handler) refers to stm32f10x_it.o(.text.HardFault_Handler) for [Anonymous Symbol]
    stm32f10x_it.o(.ARM.exidx.text.MemManage_Handler) refers to stm32f10x_it.o(.text.MemManage_Handler) for [Anonymous Symbol]
    stm32f10x_it.o(.ARM.exidx.text.BusFault_Handler) refers to stm32f10x_it.o(.text.BusFault_Handler) for [Anonymous Symbol]
    stm32f10x_it.o(.ARM.exidx.text.UsageFault_Handler) refers to stm32f10x_it.o(.text.UsageFault_Handler) for [Anonymous Symbol]
    stm32f10x_it.o(.ARM.exidx.text.SVC_Handler) refers to stm32f10x_it.o(.text.SVC_Handler) for [Anonymous Symbol]
    stm32f10x_it.o(.ARM.exidx.text.DebugMon_Handler) refers to stm32f10x_it.o(.text.DebugMon_Handler) for [Anonymous Symbol]
    stm32f10x_it.o(.ARM.exidx.text.PendSV_Handler) refers to stm32f10x_it.o(.text.PendSV_Handler) for [Anonymous Symbol]
    main.o(.text) refers (Special) to _printf_d.o(.ARM.Collect$$_printf_percent$$00000009) for _printf_d
    main.o(.text) refers (Special) to _printf_f.o(.ARM.Collect$$_printf_percent$$00000003) for _printf_f
    main.o(.text) refers (Special) to printf1.o(x$fpl$printf1) for _printf_fp_dec
    main.o(.text) refers (Special) to _printf_dec.o(.text) for _printf_int_dec
    main.o(.text) refers (Special) to _printf_percent.o(.ARM.Collect$$_printf_percent$$00000000) for _printf_percent
    main.o(.text) refers (Special) to _printf_pad.o(.text) for _printf_pre_padding
    main.o(.text.main) refers (Special) to _printf_d.o(.ARM.Collect$$_printf_percent$$00000009) for _printf_d
    main.o(.text.main) refers (Special) to _printf_f.o(.ARM.Collect$$_printf_percent$$00000003) for _printf_f
    main.o(.text.main) refers (Special) to printf1.o(x$fpl$printf1) for _printf_fp_dec
    main.o(.text.main) refers (Special) to _printf_dec.o(.text) for _printf_int_dec
==============================================================================

Removing Unused input sections from the image.

    Removing stm32f10x_it.o(.text), (0 bytes).
    Removing stm32f10x_it.o(.ARM.exidx.text.NMI_Handler), (8 bytes).
    Removing stm32f10x_it.o(.ARM.exidx.text.HardFault_Handler), (8 bytes).
    Removing stm32f10x_it.o(.ARM.exidx.text.MemManage_Handler), (8 bytes).
    Removing stm32f10x_it.o(.ARM.exidx.text.BusFault_Handler), (8 bytes).
    Removing stm32f10x_it.o(.ARM.exidx.text.UsageFault_Handler), (8 bytes).
    Removing stm32f10x_it.o(.ARM.exidx.text.SVC_Handler), (8 bytes).
    Removing stm32f10x_it.o(.ARM.exidx.text.DebugMon_Handler), (8 bytes).
    Removing stm32f10x_it.o(.ARM.exidx.text.PendSV_Handler), (8 bytes).
    Removing main.o(.text), (0 bytes).
    Removing main.o(.ARM.exidx.text.main), (8 bytes).
    Removing main.o(.ARM.use_no_argv), (4 bytes).
    Removing my_board.o(.text), (0 bytes).
    Removing my_board.o(.ARM.exidx.text.$Sub$$main), (8 bytes).
    Removing my_board.o(.ARM.exidx.text.NVIC_Configuration), (8 bytes).
    Removing my_lcd1602.o(.text), (0 bytes).
    Removing my_lcd1602.o(.ARM.exidx.text.LCD_GPIO_init), (8 bytes).
    Removing my_lcd1602.o(.ARM.exidx.text.GPIO_data), (8 bytes).
==============================================================================

Image Symbol Table

    Local Symbols

    Symbol Name                              Value     Ov Type        Size  Object(Section)

    ../clib/angel/boardlib.s                 0x00000000   Number         0  boardinit1.o ABSOLUTE
    ../clib/angel/boardlib.s                 0x00000000   Number         0  boardinit2.o ABSOLUTE
    ../clib/angel/boardlib.s                 0x00000000   Number         0  boardinit3.o ABSOLUTE
    ../clib/angel/boardlib.s                 0x00000000   Number         0  boardshut.o ABSOLUTE
    ../clib/angel/handlers.s                 0x00000000   Number         0  __scatter_copy.o ABSOLUTE
    ../clib/angel/handlers.s                 0x00000000   Number         0  __scatter_zi.o ABSOLUTE
    ../clib/angel/kernel.s                   0x00000000   Number         0  __rtentry.o ABSOLUTE
    ../clib/angel/kernel.s                   0x00000000   Number         0  __rtentry2.o ABSOLUTE
    ../clib/angel/kernel.s                   0x00000000   Number         0  __rtentry4.o ABSOLUTE
    ../clib/angel/kernel.s                   0x00000000   Number         0  rtexit.o ABSOLUTE
    ../clib/angel/kernel.s                   0x00000000   Number         0  rtexit2.o ABSOLUTE
    ../clib/angel/rt.s                       0x00000000   Number         0  rt_locale.o ABSOLUTE
    ../clib/angel/rt.s                       0x00000000   Number         0  rt_locale_intlibspace.o ABSOLUTE
    ../clib/angel/rt.s                       0x00000000   Number         0  rt_raise.o ABSOLUTE
    ../clib/angel/scatter.s                  0x00000000   Number         0  __scatter.o ABSOLUTE
    ../clib/angel/startup.s                  0x00000000   Number         0  __main.o ABSOLUTE
    ../clib/angel/sys.s                      0x00000000   Number         0  libspace.o ABSOLUTE
    ../clib/angel/sys.s                      0x00000000   Number         0  sys_stackheap_outer.o ABSOLUTE
    ../clib/angel/sys.s                      0x00000000   Number         0  use_no_semi.o ABSOLUTE
    ../clib/angel/sys.s                      0x00000000   Number         0  indicate_semi.o ABSOLUTE
    ../clib/angel/sysapp.c                   0x00000000   Number         0  sys_command.o ABSOLUTE
    ../clib/angel/sysapp.c                   0x00000000   Number         0  sys_exit.o ABSOLUTE
    ../clib/angel/sysapp.c                   0x00000000   Number         0  sys_command_hlt.o ABSOLUTE
    ../clib/angel/sysapp.c                   0x00000000   Number         0  sys_exit_hlt.o ABSOLUTE
    ../clib/angel/sysapp.c                   0x00000000   Number         0  sys_wrch.o ABSOLUTE
    ../clib/angel/sysapp.c                   0x00000000   Number         0  sys_wrch_hlt.o ABSOLUTE
    ../clib/armsys.c                         0x00000000   Number         0  argv_veneer.o ABSOLUTE
    ../clib/armsys.c                         0x00000000   Number         0  argv_veneer.o ABSOLUTE
    ../clib/armsys.c                         0x00000000   Number         0  _get_argv_nomalloc.o ABSOLUTE
    ../clib/armsys.c                         0x00000000   Number         0  no_argv.o ABSOLUTE
    ../clib/bigflt.c                         0x00000000   Number         0  bigflt0.o ABSOLUTE
    ../clib/btod.s                           0x00000000   Number         0  btod.o ABSOLUTE
    ../clib/btod_accurate.c                  0x00000000   Number         0  btod_accurate.o ABSOLUTE
    ../clib/btod_accurate.c                  0x00000000   Number         0  btod_accurate_common.o ABSOLUTE
    ../clib/heapalloc.c                      0x00000000   Number         0  hrguard.o ABSOLUTE
    ../clib/heapaux.c                        0x00000000   Number         0  heapauxi.o ABSOLUTE
    ../clib/libinit.s                        0x00000000   Number         0  libinit.o ABSOLUTE
    ../clib/libinit.s                        0x00000000   Number         0  libinit2.o ABSOLUTE
    ../clib/libinit.s                        0x00000000   Number         0  libshutdown.o ABSOLUTE
    ../clib/libinit.s                        0x00000000   Number         0  libshutdown2.o ABSOLUTE
    ../clib/locale.s                         0x00000000   Number         0  lc_numeric_c.o ABSOLUTE
    ../clib/longlong.s                       0x00000000   Number         0  lludiv10.o ABSOLUTE
    ../clib/longlong.s                       0x00000000   Number         0  llushr.o ABSOLUTE
    ../clib/memcpset.s                       0x00000000   Number         0  rt_memclr_w.o ABSOLUTE
    ../clib/memcpset.s                       0x00000000   Number         0  strcmpv7m.o ABSOLUTE
    ../clib/misc.s                           0x00000000   Number         0  printf_stubs.o ABSOLUTE
    ../clib/printf.c                         0x00000000   Number         0  __2sprintf.o ABSOLUTE
    ../clib/printf.c                         0x00000000   Number         0  noretval__2sprintf.o ABSOLUTE
    ../clib/printf.c                         0x00000000   Number         0  __printf.o ABSOLUTE
    ../clib/printf.c                         0x00000000   Number         0  _printf_pad.o ABSOLUTE
    ../clib/printf.c                         0x00000000   Number         0  _printf_dec.o ABSOLUTE
    ../clib/printf.c                         0x00000000   Number         0  __printf_flags.o ABSOLUTE
    ../clib/printf.c                         0x00000000   Number         0  __printf_ss.o ABSOLUTE
    ../clib/printf.c                         0x00000000   Number         0  __printf_flags_ss.o ABSOLUTE
    ../clib/printf.c                         0x00000000   Number         0  __printf_wp.o ABSOLUTE
    ../clib/printf.c                         0x00000000   Number         0  __printf_flags_wp.o ABSOLUTE
    ../clib/printf.c                         0x00000000   Number         0  __printf_ss_wp.o ABSOLUTE
    ../clib/printf.c                         0x00000000   Number         0  __printf_flags_ss_wp.o ABSOLUTE
    ../clib/printf.c                         0x00000000   Number         0  _printf_intcommon.o ABSOLUTE
    ../clib/printf.c                         0x00000000   Number         0  _printf_fp_dec.o ABSOLUTE
    ../clib/printf.c                         0x00000000   Number         0  _printf_fp_dec_accurate.o ABSOLUTE
    ../clib/printf.c                         0x00000000   Number         0  _printf_char_common.o ABSOLUTE
    ../clib/printf.c                         0x00000000   Number         0  _sputc.o ABSOLUTE
    ../clib/printf.c                         0x00000000   Number         0  _printf_fp_infnan.o ABSOLUTE
    ../clib/printf.c                         0x00000000   Number         0  __printf_nopercent.o ABSOLUTE
    ../clib/printf_percent.s                 0x00000000   Number         0  _printf_d.o ABSOLUTE
    ../clib/printf_percent.s                 0x00000000   Number         0  _printf_f.o ABSOLUTE
    ../clib/printf_percent.s                 0x00000000   Number         0  _printf_percent.o ABSOLUTE
    ../clib/printf_percent.s                 0x00000000   Number         0  _printf_percent_end.o ABSOLUTE
    ../clib/signal.c                         0x00000000   Number         0  defsig_rtmem_outer.o ABSOLUTE
    ../clib/signal.c                         0x00000000   Number         0  defsig_rtmem_formal.o ABSOLUTE
    ../clib/signal.c                         0x00000000   Number         0  defsig_exit.o ABSOLUTE
    ../clib/signal.c                         0x00000000   Number         0  defsig_rtmem_inner.o ABSOLUTE
    ../clib/signal.c                         0x00000000   Number         0  __raise.o ABSOLUTE
    ../clib/signal.c                         0x00000000   Number         0  defsig_general.o ABSOLUTE
    ../clib/signal.c                         0x00000000   Number         0  defsig_abrt_inner.o ABSOLUTE
    ../clib/signal.c                         0x00000000   Number         0  defsig_fpe_inner.o ABSOLUTE
    ../clib/signal.c                         0x00000000   Number         0  defsig_rtred_inner.o ABSOLUTE
    ../clib/signal.c                         0x00000000   Number         0  defsig_stak_inner.o ABSOLUTE
    ../clib/signal.c                         0x00000000   Number         0  defsig_pvfn_inner.o ABSOLUTE
    ../clib/signal.c                         0x00000000   Number         0  defsig_cppl_inner.o ABSOLUTE
    ../clib/signal.c                         0x00000000   Number         0  defsig_segv_inner.o ABSOLUTE
    ../clib/signal.c                         0x00000000   Number         0  defsig_other.o ABSOLUTE
    ../clib/signal.s                         0x00000000   Number         0  defsig.o ABSOLUTE
    ../clib/stdlib.c                         0x00000000   Number         0  exit.o ABSOLUTE
    ../clib/string.c                         0x00000000   Number         0  strlen.o ABSOLUTE
    ../fplib/d2f.s                           0x00000000   Number         0  d2f.o ABSOLUTE
    ../fplib/daddsub.s                       0x00000000   Number         0  daddsub_clz.o ABSOLUTE
    ../fplib/dflt.s                          0x00000000   Number         0  dflt_clz.o ABSOLUTE
    ../fplib/dmul.s                          0x00000000   Number         0  dmul.o ABSOLUTE
    ../fplib/dnaninf.s                       0x00000000   Number         0  dnaninf.o ABSOLUTE
    ../fplib/dretinf.s                       0x00000000   Number         0  dretinf.o ABSOLUTE
    ../fplib/f2d.s                           0x00000000   Number         0  f2d.o ABSOLUTE
    ../fplib/fnaninf.s                       0x00000000   Number         0  fnaninf.o ABSOLUTE
    ../fplib/fpinit.s                        0x00000000   Number         0  fpinit.o ABSOLUTE
    ../fplib/fpinit_empty.s                  0x00000000   Number         0  fpinit_empty.o ABSOLUTE
    ../fplib/fretinf.s                       0x00000000   Number         0  fretinf.o ABSOLUTE
    ../fplib/istatus.s                       0x00000000   Number         0  istatus.o ABSOLUTE
    ../fplib/printf1.s                       0x00000000   Number         0  printf1.o ABSOLUTE
    ../fplib/usenofp.s                       0x00000000   Number         0  usenofp.o ABSOLUTE
    ../mathlib/fpclassify.c                  0x00000000   Number         0  fpclassify.o ABSOLUTE
    ..\CORE\startup_stm32f10x_hd.s           0x00000000   Number         0  startup_stm32f10x_hd.o ABSOLUTE
    dc.s                                     0x00000000   Number         0  dc.o ABSOLUTE
    delay.c                                  0x00000000   Number         0  delay.o ABSOLUTE
    main.c                                   0x00000000   Number         0  main.o ABSOLUTE
    misc.c                                   0x00000000   Number         0  misc.o ABSOLUTE
    my_board.c                               0x00000000   Number         0  my_board.o ABSOLUTE
    my_iic.c                                 0x00000000   Number         0  my_iic.o ABSOLUTE
    my_lcd1602.c                             0x00000000   Number         0  my_lcd1602.o ABSOLUTE
    my_max301xx_uart.c                       0x00000000   Number         0  my_max301xx_uart.o ABSOLUTE
    my_mlx90614.c                            0x00000000   Number         0  my_mlx90614.o ABSOLUTE
    my_sysdef.c                              0x00000000   Number         0  my_sysdef.o ABSOLUTE
    my_systick.c                             0x00000000   Number         0  my_systick.o ABSOLUTE
    mygpio.c                                 0x00000000   Number         0  mygpio.o ABSOLUTE
    stm32f10x_adc.c                          0x00000000   Number         0  stm32f10x_adc.o ABSOLUTE
    stm32f10x_bkp.c                          0x00000000   Number         0  stm32f10x_bkp.o ABSOLUTE
    stm32f10x_can.c                          0x00000000   Number         0  stm32f10x_can.o ABSOLUTE
    stm32f10x_cec.c                          0x00000000   Number         0  stm32f10x_cec.o ABSOLUTE
    stm32f10x_crc.c                          0x00000000   Number         0  stm32f10x_crc.o ABSOLUTE
    stm32f10x_dac.c                          0x00000000   Number         0  stm32f10x_dac.o ABSOLUTE
    stm32f10x_dbgmcu.c                       0x00000000   Number         0  stm32f10x_dbgmcu.o ABSOLUTE
    stm32f10x_dma.c                          0x00000000   Number         0  stm32f10x_dma.o ABSOLUTE
    stm32f10x_exti.c                         0x00000000   Number         0  stm32f10x_exti.o ABSOLUTE
    stm32f10x_flash.c                        0x00000000   Number         0  stm32f10x_flash.o ABSOLUTE
    stm32f10x_fsmc.c                         0x00000000   Number         0  stm32f10x_fsmc.o ABSOLUTE
    stm32f10x_gpio.c                         0x00000000   Number         0  stm32f10x_gpio.o ABSOLUTE
    stm32f10x_i2c.c                          0x00000000   Number         0  stm32f10x_i2c.o ABSOLUTE
    stm32f10x_it.c                           0x00000000   Number         0  stm32f10x_it.o ABSOLUTE
    stm32f10x_iwdg.c                         0x00000000   Number         0  stm32f10x_iwdg.o ABSOLUTE
    stm32f10x_pwr.c                          0x00000000   Number         0  stm32f10x_pwr.o ABSOLUTE
    stm32f10x_rcc.c                          0x00000000   Number         0  stm32f10x_rcc.o ABSOLUTE
    stm32f10x_rtc.c                          0x00000000   Number         0  stm32f10x_rtc.o ABSOLUTE
    stm32f10x_sdio.c                         0x00000000   Number         0  stm32f10x_sdio.o ABSOLUTE
    stm32f10x_spi.c                          0x00000000   Number         0  stm32f10x_spi.o ABSOLUTE
    stm32f10x_tim.c                          0x00000000   Number         0  stm32f10x_tim.o ABSOLUTE
    stm32f10x_usart.c                        0x00000000   Number         0  stm32f10x_usart.o ABSOLUTE
    stm32f10x_wwdg.c                         0x00000000   Number         0  stm32f10x_wwdg.o ABSOLUTE
    system_stm32f10x.c                       0x00000000   Number         0  system_stm32f10x.o ABSOLUTE
    usart.c                                  0x00000000   Number         0  usart.o ABSOLUTE
    RESET                                    0x08000000   Section      304  startup_stm32f10x_hd.o(RESET)
    !!!main                                  0x08000130   Section        8  __main.o(!!!main)
    !!!scatter                               0x08000138   Section       52  __scatter.o(!!!scatter)
    !!handler_copy                           0x0800016c   Section       26  __scatter_copy.o(!!handler_copy)
    !!handler_zi                             0x08000188   Section       28  __scatter_zi.o(!!handler_zi)
    .ARM.Collect$$_printf_percent$$00000000  0x080001a4   Section        0  _printf_percent.o(.ARM.Collect$$_printf_percent$$00000000)
    .ARM.Collect$$_printf_percent$$00000003  0x080001a4   Section        6  _printf_f.o(.ARM.Collect$$_printf_percent$$00000003)
    .ARM.Collect$$_printf_percent$$00000009  0x080001aa   Section        6  _printf_d.o(.ARM.Collect$$_printf_percent$$00000009)
    .ARM.Collect$$_printf_percent$$00000017  0x080001b0   Section        4  _printf_percent_end.o(.ARM.Collect$$_printf_percent$$00000017)
    .ARM.Collect$$libinit$$00000000          0x080001b4   Section        2  libinit.o(.ARM.Collect$$libinit$$00000000)
    .ARM.Collect$$libinit$$00000002          0x080001b6   Section        0  libinit2.o(.ARM.Collect$$libinit$$00000002)
    .ARM.Collect$$libinit$$00000004          0x080001b6   Section        0  libinit2.o(.ARM.Collect$$libinit$$00000004)
    .ARM.Collect$$libinit$$0000000A          0x080001b6   Section        0  libinit2.o(.ARM.Collect$$libinit$$0000000A)
    .ARM.Collect$$libinit$$0000000C          0x080001b6   Section        0  libinit2.o(.ARM.Collect$$libinit$$0000000C)
    .ARM.Collect$$libinit$$0000000E          0x080001b6   Section        0  libinit2.o(.ARM.Collect$$libinit$$0000000E)
    .ARM.Collect$$libinit$$0000000F          0x080001b6   Section        6  libinit2.o(.ARM.Collect$$libinit$$0000000F)
    .ARM.Collect$$libinit$$00000011          0x080001bc   Section        0  libinit2.o(.ARM.Collect$$libinit$$00000011)
    .ARM.Collect$$libinit$$00000013          0x080001bc   Section        0  libinit2.o(.ARM.Collect$$libinit$$00000013)
    .ARM.Collect$$libinit$$00000015          0x080001bc   Section        0  libinit2.o(.ARM.Collect$$libinit$$00000015)
    .ARM.Collect$$libinit$$00000016          0x080001bc   Section       10  libinit2.o(.ARM.Collect$$libinit$$00000016)
    .ARM.Collect$$libinit$$00000017          0x080001c6   Section        0  libinit2.o(.ARM.Collect$$libinit$$00000017)
    .ARM.Collect$$libinit$$00000019          0x080001c6   Section        0  libinit2.o(.ARM.Collect$$libinit$$00000019)
    .ARM.Collect$$libinit$$0000001B          0x080001c6   Section        0  libinit2.o(.ARM.Collect$$libinit$$0000001B)
    .ARM.Collect$$libinit$$0000001D          0x080001c6   Section        0  libinit2.o(.ARM.Collect$$libinit$$0000001D)
    .ARM.Collect$$libinit$$0000001F          0x080001c6   Section        0  libinit2.o(.ARM.Collect$$libinit$$0000001F)
    .ARM.Collect$$libinit$$00000021          0x080001c6   Section        0  libinit2.o(.ARM.Collect$$libinit$$00000021)
    .ARM.Collect$$libinit$$00000023          0x080001c6   Section        0  libinit2.o(.ARM.Collect$$libinit$$00000023)
    .ARM.Collect$$libinit$$00000025          0x080001c6   Section        0  libinit2.o(.ARM.Collect$$libinit$$00000025)
    .ARM.Collect$$libinit$$0000002C          0x080001c6   Section        0  libinit2.o(.ARM.Collect$$libinit$$0000002C)
    .ARM.Collect$$libinit$$0000002E          0x080001c6   Section        0  libinit2.o(.ARM.Collect$$libinit$$0000002E)
    .ARM.Collect$$libinit$$00000030          0x080001c6   Section        0  libinit2.o(.ARM.Collect$$libinit$$00000030)
    .ARM.Collect$$libinit$$00000032          0x080001c6   Section        0  libinit2.o(.ARM.Collect$$libinit$$00000032)
    .ARM.Collect$$libinit$$00000033          0x080001c6   Section        2  libinit2.o(.ARM.Collect$$libinit$$00000033)
    .ARM.Collect$$libshutdown$$00000000      0x080001c8   Section        2  libshutdown.o(.ARM.Collect$$libshutdown$$00000000)
    .ARM.Collect$$libshutdown$$00000002      0x080001ca   Section        0  libshutdown2.o(.ARM.Collect$$libshutdown$$00000002)
    .ARM.Collect$$libshutdown$$00000004      0x080001ca   Section        0  libshutdown2.o(.ARM.Collect$$libshutdown$$00000004)
    .ARM.Collect$$libshutdown$$00000007      0x080001ca   Section        0  libshutdown2.o(.ARM.Collect$$libshutdown$$00000007)
    .ARM.Collect$$libshutdown$$0000000A      0x080001ca   Section        0  libshutdown2.o(.ARM.Collect$$libshutdown$$0000000A)
    .ARM.Collect$$libshutdown$$0000000C      0x080001ca   Section        0  libshutdown2.o(.ARM.Collect$$libshutdown$$0000000C)
    .ARM.Collect$$libshutdown$$0000000F      0x080001ca   Section        0  libshutdown2.o(.ARM.Collect$$libshutdown$$0000000F)
    .ARM.Collect$$libshutdown$$00000010      0x080001ca   Section        2  libshutdown2.o(.ARM.Collect$$libshutdown$$00000010)
    .ARM.Collect$$rtentry$$00000000          0x080001cc   Section        0  __rtentry.o(.ARM.Collect$$rtentry$$00000000)
    .ARM.Collect$$rtentry$$00000002          0x080001cc   Section        0  __rtentry2.o(.ARM.Collect$$rtentry$$00000002)
    .ARM.Collect$$rtentry$$00000004          0x080001cc   Section        6  __rtentry4.o(.ARM.Collect$$rtentry$$00000004)
    .ARM.Collect$$rtentry$$00000009          0x080001d2   Section        0  __rtentry2.o(.ARM.Collect$$rtentry$$00000009)
    .ARM.Collect$$rtentry$$0000000A          0x080001d2   Section        4  __rtentry2.o(.ARM.Collect$$rtentry$$0000000A)
    .ARM.Collect$$rtentry$$0000000C          0x080001d6   Section        0  __rtentry2.o(.ARM.Collect$$rtentry$$0000000C)
    .ARM.Collect$$rtentry$$0000000D          0x080001d6   Section        8  __rtentry2.o(.ARM.Collect$$rtentry$$0000000D)
    .ARM.Collect$$rtexit$$00000000           0x080001de   Section        2  rtexit.o(.ARM.Collect$$rtexit$$00000000)
    .ARM.Collect$$rtexit$$00000002           0x080001e0   Section        0  rtexit2.o(.ARM.Collect$$rtexit$$00000002)
    .ARM.Collect$$rtexit$$00000003           0x080001e0   Section        4  rtexit2.o(.ARM.Collect$$rtexit$$00000003)
    .ARM.Collect$$rtexit$$00000004           0x080001e4   Section        6  rtexit2.o(.ARM.Collect$$rtexit$$00000004)
    .text                                    0x080001ec   Section       64  startup_stm32f10x_hd.o(.text)
    .text                                    0x0800022c   Section        0  noretval__2sprintf.o(.text)
    .text                                    0x08000254   Section        0  _printf_pad.o(.text)
    .text                                    0x080002a4   Section        0  _printf_dec.o(.text)
    .text                                    0x0800031c   Section        0  __printf_flags_wp.o(.text)
    .text                                    0x08000454   Section        0  strlen.o(.text)
    .text                                    0x08000492   Section        0  heapauxi.o(.text)
    .text                                    0x08000498   Section        0  _printf_intcommon.o(.text)
    _fp_digits                               0x0800054b   Thumb Code   432  _printf_fp_dec.o(.text)
    .text                                    0x0800054a   Section        0  _printf_fp_dec.o(.text)
    _printf_input_char                       0x08000969   Thumb Code    10  _printf_char_common.o(.text)
    .text                                    0x08000968   Section        0  _printf_char_common.o(.text)
    .text                                    0x08000998   Section        0  _sputc.o(.text)
    .text                                    0x080009a4   Section        8  rt_locale_intlibspace.o(.text)
    .text                                    0x080009ac   Section      138  lludiv10.o(.text)
    .text                                    0x08000a38   Section        0  _printf_fp_infnan.o(.text)
    .text                                    0x08000ab8   Section        0  bigflt0.o(.text)
    .text                                    0x08000b9c   Section        8  libspace.o(.text)
    .text                                    0x08000ba4   Section       74  sys_stackheap_outer.o(.text)
    .text                                    0x08000bee   Section        0  exit.o(.text)
    .text                                    0x08000c00   Section      128  strcmpv7m.o(.text)
    .text                                    0x08000c80   Section        0  sys_exit.o(.text)
    .text                                    0x08000c8c   Section        2  use_no_semi.o(.text)
    .text                                    0x08000c8e   Section        0  indicate_semi.o(.text)
    [Anonymous Symbol]                       0x08000c90   Section        0  my_board.o(.text.$Sub$$main)
    [Anonymous Symbol]                       0x08000ca8   Section        0  stm32f10x_it.o(.text.BusFault_Handler)
    [Anonymous Symbol]                       0x08000cac   Section        0  delay.o(.text.DWT_Init)
    [Anonymous Symbol]                       0x08000cd4   Section        0  stm32f10x_it.o(.text.DebugMon_Handler)
    [Anonymous Symbol]                       0x08000cd8   Section        0  stm32f10x_gpio.o(.text.GPIO_Init)
    [Anonymous Symbol]                       0x08000d88   Section        0  stm32f10x_gpio.o(.text.GPIO_PinRemapConfig)
    [Anonymous Symbol]                       0x08000df8   Section        0  mygpio.o(.text.GPIO_Pin_Init)
    [Anonymous Symbol]                       0x08000e60   Section        0  my_lcd1602.o(.text.GPIO_data)
    [Anonymous Symbol]                       0x08000e9c   Section        0  stm32f10x_it.o(.text.HardFault_Handler)
    [Anonymous Symbol]                       0x08000ea0   Section        0  my_iic.o(.text.IIC_Init)
    [Anonymous Symbol]                       0x08000ec4   Section        0  my_iic.o(.text.IIC_Recv_Byte)
    [Anonymous Symbol]                       0x08000f1c   Section        0  my_iic.o(.text.IIC_SendAck)
    [Anonymous Symbol]                       0x08000f4c   Section        0  my_iic.o(.text.IIC_Send_Byte)
    [Anonymous Symbol]                       0x08000fa0   Section        0  my_iic.o(.text.IIC_Start)
    [Anonymous Symbol]                       0x08000fcc   Section        0  my_iic.o(.text.IIC_Stop)
    [Anonymous Symbol]                       0x08000ffc   Section        0  my_iic.o(.text.IIC_Wait_Ack)
    [Anonymous Symbol]                       0x08001044   Section        0  my_lcd1602.o(.text.LCD1602_Init)
    [Anonymous Symbol]                       0x08001078   Section        0  my_lcd1602.o(.text.LCD1602_WriteCmd)
    [Anonymous Symbol]                       0x080010a4   Section        0  my_lcd1602.o(.text.LCD_Busy)
    [Anonymous Symbol]                       0x08001128   Section        0  my_lcd1602.o(.text.LCD_En_Toggle)
    [Anonymous Symbol]                       0x08001144   Section        0  my_lcd1602.o(.text.LCD_GPIO_init)
    [Anonymous Symbol]                       0x08001180   Section        0  stm32f10x_it.o(.text.MemManage_Handler)
    [Anonymous Symbol]                       0x08001184   Section        0  my_max301xx_uart.o(.text.My_MAX301xx_Init)
    [Anonymous Symbol]                       0x080011a4   Section        0  my_max301xx_uart.o(.text.My_MAX301xx_Uart_GetSPO2)
    [Anonymous Symbol]                       0x080011b8   Section        0  my_max301xx_uart.o(.text.My_MAX301xx_Uart_StateMachine)
    [Anonymous Symbol]                       0x08001244   Section        0  my_mlx90614.o(.text.My_MLX90614_ReadObjectTemp)
    [Anonymous Symbol]                       0x080012cc   Section        0  my_systick.o(.text.My_SysTick_Init)
    [Anonymous Symbol]                       0x080012e8   Section        0  usart.o(.text.My_USART_Init)
    [Anonymous Symbol]                       0x08001368   Section        0  usart.o(.text.My_USART_SendByte)
    [Anonymous Symbol]                       0x08001374   Section        0  usart.o(.text.My_USART_SendString)
    [Anonymous Symbol]                       0x08001398   Section        0  usart.o(.text.My_USART_SetReceiveByteHook)
    [Anonymous Symbol]                       0x080013b4   Section        0  stm32f10x_it.o(.text.NMI_Handler)
    [Anonymous Symbol]                       0x080013b8   Section        0  my_board.o(.text.NVIC_Configuration)
    [Anonymous Symbol]                       0x080013c0   Section        0  misc.o(.text.NVIC_Init)
    [Anonymous Symbol]                       0x08001420   Section        0  misc.o(.text.NVIC_PriorityGroupConfig)
    [Anonymous Symbol]                       0x08001434   Section        0  usart.o(.text.OnUSART_ReceiveByte)
    [Anonymous Symbol]                       0x08001438   Section        0  stm32f10x_it.o(.text.PendSV_Handler)
    [Anonymous Symbol]                       0x0800143c   Section        0  stm32f10x_rcc.o(.text.RCC_APB1PeriphClockCmd)
    [Anonymous Symbol]                       0x08001454   Section        0  stm32f10x_rcc.o(.text.RCC_APB1PeriphResetCmd)
    [Anonymous Symbol]                       0x0800146c   Section        0  stm32f10x_rcc.o(.text.RCC_APB2PeriphClockCmd)
    [Anonymous Symbol]                       0x08001484   Section        0  stm32f10x_rcc.o(.text.RCC_APB2PeriphResetCmd)
    [Anonymous Symbol]                       0x0800149c   Section        0  stm32f10x_rcc.o(.text.RCC_GetClocksFreq)
    [Anonymous Symbol]                       0x0800153c   Section        0  stm32f10x_it.o(.text.SVC_Handler)
    SetSysClock                              0x08001541   Thumb Code     4  system_stm32f10x.o(.text.SetSysClock)
    [Anonymous Symbol]                       0x08001540   Section        0  system_stm32f10x.o(.text.SetSysClock)
    SetSysClockTo24                          0x08001545   Thumb Code   182  system_stm32f10x.o(.text.SetSysClockTo24)
    [Anonymous Symbol]                       0x08001544   Section        0  system_stm32f10x.o(.text.SetSysClockTo24)
    [Anonymous Symbol]                       0x080015fc   Section        0  my_sysdef.o(.text.StateMachine_GetStr)
    SysTick_Config                           0x08001631   Thumb Code    36  my_systick.o(.text.SysTick_Config)
    [Anonymous Symbol]                       0x08001630   Section        0  my_systick.o(.text.SysTick_Config)
    [Anonymous Symbol]                       0x08001654   Section        0  my_systick.o(.text.SysTick_Handler)
    [Anonymous Symbol]                       0x080016b4   Section        0  system_stm32f10x.o(.text.SystemInit)
    [Anonymous Symbol]                       0x0800170c   Section        0  usart.o(.text.USART3_IRQHandler)
    [Anonymous Symbol]                       0x08001740   Section        0  stm32f10x_usart.o(.text.USART_Cmd)
    [Anonymous Symbol]                       0x08001754   Section        0  stm32f10x_usart.o(.text.USART_DeInit)
    [Anonymous Symbol]                       0x08001804   Section        0  stm32f10x_usart.o(.text.USART_GetITStatus)
    [Anonymous Symbol]                       0x08001840   Section        0  stm32f10x_usart.o(.text.USART_ITConfig)
    [Anonymous Symbol]                       0x08001870   Section        0  stm32f10x_usart.o(.text.USART_Init)
    [Anonymous Symbol]                       0x08001924   Section        0  stm32f10x_usart.o(.text.USART_ReceiveData)
    [Anonymous Symbol]                       0x0800192c   Section        0  stm32f10x_usart.o(.text.USART_SendData)
    [Anonymous Symbol]                       0x08001934   Section        0  stm32f10x_it.o(.text.UsageFault_Handler)
    __NVIC_SetPriority                       0x08001939   Thumb Code    14  my_systick.o(.text.__NVIC_SetPriority)
    [Anonymous Symbol]                       0x08001938   Section        0  my_systick.o(.text.__NVIC_SetPriority)
    [Anonymous Symbol]                       0x08001948   Section        0  delay.o(.text.delay_us)
    [Anonymous Symbol]                       0x08001988   Section        0  main.o(.text.main)
    CL$$btod_d2e                             0x08001afc   Section       62  btod.o(CL$$btod_d2e)
    CL$$btod_d2e_denorm_low                  0x08001b3a   Section       70  btod.o(CL$$btod_d2e_denorm_low)
    CL$$btod_d2e_norm_op1                    0x08001b80   Section       96  btod.o(CL$$btod_d2e_norm_op1)
    CL$$btod_div_common                      0x08001be0   Section      824  btod.o(CL$$btod_div_common)
    CL$$btod_e2e                             0x08001f18   Section      220  btod.o(CL$$btod_e2e)
    CL$$btod_ediv                            0x08001ff4   Section       42  btod.o(CL$$btod_ediv)
    CL$$btod_emul                            0x0800201e   Section       42  btod.o(CL$$btod_emul)
    CL$$btod_mult_common                     0x08002048   Section      580  btod.o(CL$$btod_mult_common)
    i.__ARM_fpclassify                       0x0800228c   Section        0  fpclassify.o(i.__ARM_fpclassify)
    i._is_digit                              0x080022b4   Section        0  __printf_wp.o(i._is_digit)
    locale$$code                             0x080022c4   Section       44  lc_numeric_c.o(locale$$code)
    x$fpl$d2f                                0x080022f0   Section       98  d2f.o(x$fpl$d2f)
    x$fpl$dadd                               0x08002354   Section      336  daddsub_clz.o(x$fpl$dadd)
    _dadd1                                   0x08002365   Thumb Code     0  daddsub_clz.o(x$fpl$dadd)
    x$fpl$dflt                               0x080024a4   Section       46  dflt_clz.o(x$fpl$dflt)
    x$fpl$dmul                               0x080024d4   Section      340  dmul.o(x$fpl$dmul)
    x$fpl$dnaninf                            0x08002628   Section      156  dnaninf.o(x$fpl$dnaninf)
    x$fpl$dretinf                            0x080026c4   Section       12  dretinf.o(x$fpl$dretinf)
    x$fpl$dsub                               0x080026d0   Section      468  daddsub_clz.o(x$fpl$dsub)
    _dsub1                                   0x080026e1   Thumb Code     0  daddsub_clz.o(x$fpl$dsub)
    x$fpl$f2d                                0x080028a4   Section       86  f2d.o(x$fpl$f2d)
    x$fpl$fnaninf                            0x080028fa   Section      140  fnaninf.o(x$fpl$fnaninf)
    x$fpl$fretinf                            0x08002986   Section       10  fretinf.o(x$fpl$fretinf)
    x$fpl$printf1                            0x08002990   Section        4  printf1.o(x$fpl$printf1)
    maptable                                 0x08002994   Data          17  __printf_flags_wp.o(.constdata)
    .constdata                               0x08002994   Section       17  __printf_flags_wp.o(.constdata)
    x$fpl$usenofp                            0x08002994   Section        0  usenofp.o(x$fpl$usenofp)
    tenpwrs_x                                0x080029a8   Data          60  bigflt0.o(.constdata)
    .constdata                               0x080029a8   Section      148  bigflt0.o(.constdata)
    tenpwrs_i                                0x080029e4   Data          64  bigflt0.o(.constdata)
    ADCPrescTable                            0x08002a3c   Data           4  stm32f10x_rcc.o(.rodata.ADCPrescTable)
    [Anonymous Symbol]                       0x08002a3c   Section        0  stm32f10x_rcc.o(.rodata.ADCPrescTable)
    APBAHBPrescTable                         0x08002a40   Data          16  stm32f10x_rcc.o(.rodata.APBAHBPrescTable)
    [Anonymous Symbol]                       0x08002a40   Section        0  stm32f10x_rcc.o(.rodata.APBAHBPrescTable)
    Pins_Data_1602                           0x08002a50   Data           8  my_lcd1602.o(.rodata.cst8)
    locale$$data                             0x08002a78   Section       28  lc_numeric_c.o(locale$$data)
    __lcnum_c_name                           0x08002a7c   Data           2  lc_numeric_c.o(locale$$data)
    __lcnum_c_start                          0x08002a84   Data           0  lc_numeric_c.o(locale$$data)
    __lcnum_c_point                          0x08002a90   Data           0  lc_numeric_c.o(locale$$data)
    __lcnum_c_thousands                      0x08002a92   Data           0  lc_numeric_c.o(locale$$data)
    __lcnum_c_grouping                       0x08002a93   Data           0  lc_numeric_c.o(locale$$data)
    __lcnum_c_end                            0x08002a94   Data           0  lc_numeric_c.o(locale$$data)
    .bss                                     0x20000010   Section       96  libspace.o(.bss)
    My_MAX301xx_Uart_StateMachine.SPO2_temp  0x20000072   Data           1  my_max301xx_uart.o(.bss.My_MAX301xx_Uart_StateMachine.SPO2_temp)
    [Anonymous Symbol]                       0x20000072   Section        0  my_max301xx_uart.o(.bss.My_MAX301xx_Uart_StateMachine.SPO2_temp)
    My_MAX301xx_Uart_StateMachine.index_dat_SPO2 0x20000073   Data           1  my_max301xx_uart.o(.bss.My_MAX301xx_Uart_StateMachine.index_dat_SPO2)
    [Anonymous Symbol]                       0x20000073   Section        0  my_max301xx_uart.o(.bss.My_MAX301xx_Uart_StateMachine.index_dat_SPO2)
    My_MAX301xx_Uart_StateMachine.state_SPO2 0x20000074   Data           1  my_max301xx_uart.o(.bss.My_MAX301xx_Uart_StateMachine.state_SPO2)
    [Anonymous Symbol]                       0x20000074   Section        0  my_max301xx_uart.o(.bss.My_MAX301xx_Uart_StateMachine.state_SPO2)
    sysTicks                                 0x200000a4   Data           4  my_systick.o(.bss.sysTicks)
    [Anonymous Symbol]                       0x200000a4   Section        0  my_systick.o(.bss.sysTicks)
    Heap_Mem                                 0x200000a8   Data        1024  startup_stm32f10x_hd.o(HEAP)
    HEAP                                     0x200000a8   Section     1024  startup_stm32f10x_hd.o(HEAP)
    Stack_Mem                                0x200004a8   Data        1024  startup_stm32f10x_hd.o(STACK)
    STACK                                    0x200004a8   Section     1024  startup_stm32f10x_hd.o(STACK)
    __initial_sp                             0x200008a8   Data           0  startup_stm32f10x_hd.o(STACK)

    Global Symbols

    Symbol Name                              Value     Ov Type        Size  Object(Section)

    BuildAttributes$$THM_ISAv4$P$D$K$B$S$PE$A:L22UL41UL21$X:L11$S22US41US21$IEEE1$IW$~IW$USESV6$~STKCKD$USESV7$~SHL$OTIME$ROPI$IEEEJ$EBA8$UX$STANDARDLIB$REQ8$PRES8$EABIv2 0x00000000   Number         0  anon$$obj.o ABSOLUTE
    __fp_init_empty                          0x00000000   Number         0  fpinit_empty.o ABSOLUTE
    _printf_flags                            0x00000000   Number         0  printf_stubs.o ABSOLUTE
    _printf_return_value                     0x00000000   Number         0  printf_stubs.o ABSOLUTE
    _printf_sizespec                         0x00000000   Number         0  printf_stubs.o ABSOLUTE
    _printf_widthprec                        0x00000000   Number         0  printf_stubs.o ABSOLUTE
    __ARM_exceptions_init                     - Undefined Weak Reference
    __alloca_initialize                       - Undefined Weak Reference
    __arm_preinit_                            - Undefined Weak Reference
    __cpp_initialize__aeabi_                  - Undefined Weak Reference
    __cxa_finalize                            - Undefined Weak Reference
    __sigvec_lookup                           - Undefined Weak Reference
    _atexit_init                              - Undefined Weak Reference
    _call_atexit_fns                          - Undefined Weak Reference
    _clock_init                               - Undefined Weak Reference
    _fp_trap_init                             - Undefined Weak Reference
    _fp_trap_shutdown                         - Undefined Weak Reference
    _get_lc_collate                           - Undefined Weak Reference
    _get_lc_ctype                             - Undefined Weak Reference
    _get_lc_monetary                          - Undefined Weak Reference
    _get_lc_time                              - Undefined Weak Reference
    _getenv_init                              - Undefined Weak Reference
    _handle_redirection                       - Undefined Weak Reference
    _init_alloc                               - Undefined Weak Reference
    _init_user_alloc                          - Undefined Weak Reference
    _initio                                   - Undefined Weak Reference
    _printf_truncate_signed                   - Undefined Weak Reference
    _printf_truncate_unsigned                 - Undefined Weak Reference
    _rand_init                                - Undefined Weak Reference
    _signal_finish                            - Undefined Weak Reference
    _signal_init                              - Undefined Weak Reference
    _terminate_alloc                          - Undefined Weak Reference
    _terminate_user_alloc                     - Undefined Weak Reference
    _terminateio                              - Undefined Weak Reference
    __Vectors_Size                           0x00000130   Number         0  startup_stm32f10x_hd.o ABSOLUTE
    __Vectors                                0x08000000   Data           4  startup_stm32f10x_hd.o(RESET)
    __Vectors_End                            0x08000130   Data           0  startup_stm32f10x_hd.o(RESET)
    __main                                   0x08000131   Thumb Code     8  __main.o(!!!main)
    __scatterload                            0x08000139   Thumb Code     0  __scatter.o(!!!scatter)
    __scatterload_rt2                        0x08000139   Thumb Code    44  __scatter.o(!!!scatter)
    __scatterload_rt2_thumb_only             0x08000139   Thumb Code     0  __scatter.o(!!!scatter)
    __scatterload_null                       0x08000147   Thumb Code     0  __scatter.o(!!!scatter)
    __scatterload_copy                       0x0800016d   Thumb Code    26  __scatter_copy.o(!!handler_copy)
    __scatterload_zeroinit                   0x08000189   Thumb Code    28  __scatter_zi.o(!!handler_zi)
    _printf_f                                0x080001a5   Thumb Code     0  _printf_f.o(.ARM.Collect$$_printf_percent$$00000003)
    _printf_percent                          0x080001a5   Thumb Code     0  _printf_percent.o(.ARM.Collect$$_printf_percent$$00000000)
    _printf_d                                0x080001ab   Thumb Code     0  _printf_d.o(.ARM.Collect$$_printf_percent$$00000009)
    _printf_percent_end                      0x080001b1   Thumb Code     0  _printf_percent_end.o(.ARM.Collect$$_printf_percent$$00000017)
    __rt_lib_init                            0x080001b5   Thumb Code     0  libinit.o(.ARM.Collect$$libinit$$00000000)
    __rt_lib_init_fp_1                       0x080001b7   Thumb Code     0  libinit2.o(.ARM.Collect$$libinit$$00000002)
    __rt_lib_init_heap_1                     0x080001b7   Thumb Code     0  libinit2.o(.ARM.Collect$$libinit$$0000000A)
    __rt_lib_init_lc_common                  0x080001b7   Thumb Code     0  libinit2.o(.ARM.Collect$$libinit$$0000000F)
    __rt_lib_init_preinit_1                  0x080001b7   Thumb Code     0  libinit2.o(.ARM.Collect$$libinit$$00000004)
    __rt_lib_init_rand_1                     0x080001b7   Thumb Code     0  libinit2.o(.ARM.Collect$$libinit$$0000000E)
    __rt_lib_init_user_alloc_1               0x080001b7   Thumb Code     0  libinit2.o(.ARM.Collect$$libinit$$0000000C)
    __rt_lib_init_lc_collate_1               0x080001bd   Thumb Code     0  libinit2.o(.ARM.Collect$$libinit$$00000011)
    __rt_lib_init_lc_ctype_1                 0x080001bd   Thumb Code     0  libinit2.o(.ARM.Collect$$libinit$$00000013)
    __rt_lib_init_lc_monetary_1              0x080001bd   Thumb Code     0  libinit2.o(.ARM.Collect$$libinit$$00000015)
    __rt_lib_init_lc_numeric_2               0x080001bd   Thumb Code     0  libinit2.o(.ARM.Collect$$libinit$$00000016)
    __rt_lib_init_alloca_1                   0x080001c7   Thumb Code     0  libinit2.o(.ARM.Collect$$libinit$$0000002E)
    __rt_lib_init_argv_1                     0x080001c7   Thumb Code     0  libinit2.o(.ARM.Collect$$libinit$$0000002C)
    __rt_lib_init_atexit_1                   0x080001c7   Thumb Code     0  libinit2.o(.ARM.Collect$$libinit$$0000001B)
    __rt_lib_init_clock_1                    0x080001c7   Thumb Code     0  libinit2.o(.ARM.Collect$$libinit$$00000021)
    __rt_lib_init_cpp_1                      0x080001c7   Thumb Code     0  libinit2.o(.ARM.Collect$$libinit$$00000032)
    __rt_lib_init_exceptions_1               0x080001c7   Thumb Code     0  libinit2.o(.ARM.Collect$$libinit$$00000030)
    __rt_lib_init_fp_trap_1                  0x080001c7   Thumb Code     0  libinit2.o(.ARM.Collect$$libinit$$0000001F)
    __rt_lib_init_getenv_1                   0x080001c7   Thumb Code     0  libinit2.o(.ARM.Collect$$libinit$$00000023)
    __rt_lib_init_lc_numeric_1               0x080001c7   Thumb Code     0  libinit2.o(.ARM.Collect$$libinit$$00000017)
    __rt_lib_init_lc_time_1                  0x080001c7   Thumb Code     0  libinit2.o(.ARM.Collect$$libinit$$00000019)
    __rt_lib_init_return                     0x080001c7   Thumb Code     0  libinit2.o(.ARM.Collect$$libinit$$00000033)
    __rt_lib_init_signal_1                   0x080001c7   Thumb Code     0  libinit2.o(.ARM.Collect$$libinit$$0000001D)
    __rt_lib_init_stdio_1                    0x080001c7   Thumb Code     0  libinit2.o(.ARM.Collect$$libinit$$00000025)
    __rt_lib_shutdown                        0x080001c9   Thumb Code     0  libshutdown.o(.ARM.Collect$$libshutdown$$00000000)
    __rt_lib_shutdown_cpp_1                  0x080001cb   Thumb Code     0  libshutdown2.o(.ARM.Collect$$libshutdown$$00000002)
    __rt_lib_shutdown_fp_trap_1              0x080001cb   Thumb Code     0  libshutdown2.o(.ARM.Collect$$libshutdown$$00000007)
    __rt_lib_shutdown_heap_1                 0x080001cb   Thumb Code     0  libshutdown2.o(.ARM.Collect$$libshutdown$$0000000F)
    __rt_lib_shutdown_return                 0x080001cb   Thumb Code     0  libshutdown2.o(.ARM.Collect$$libshutdown$$00000010)
    __rt_lib_shutdown_signal_1               0x080001cb   Thumb Code     0  libshutdown2.o(.ARM.Collect$$libshutdown$$0000000A)
    __rt_lib_shutdown_stdio_1                0x080001cb   Thumb Code     0  libshutdown2.o(.ARM.Collect$$libshutdown$$00000004)
    __rt_lib_shutdown_user_alloc_1           0x080001cb   Thumb Code     0  libshutdown2.o(.ARM.Collect$$libshutdown$$0000000C)
    __rt_entry                               0x080001cd   Thumb Code     0  __rtentry.o(.ARM.Collect$$rtentry$$00000000)
    __rt_entry_presh_1                       0x080001cd   Thumb Code     0  __rtentry2.o(.ARM.Collect$$rtentry$$00000002)
    __rt_entry_sh                            0x080001cd   Thumb Code     0  __rtentry4.o(.ARM.Collect$$rtentry$$00000004)
    __rt_entry_li                            0x080001d3   Thumb Code     0  __rtentry2.o(.ARM.Collect$$rtentry$$0000000A)
    __rt_entry_postsh_1                      0x080001d3   Thumb Code     0  __rtentry2.o(.ARM.Collect$$rtentry$$00000009)
    __rt_entry_main                          0x080001d7   Thumb Code     0  __rtentry2.o(.ARM.Collect$$rtentry$$0000000D)
    __rt_entry_postli_1                      0x080001d7   Thumb Code     0  __rtentry2.o(.ARM.Collect$$rtentry$$0000000C)
    __rt_exit                                0x080001df   Thumb Code     0  rtexit.o(.ARM.Collect$$rtexit$$00000000)
    __rt_exit_ls                             0x080001e1   Thumb Code     0  rtexit2.o(.ARM.Collect$$rtexit$$00000003)
    __rt_exit_prels_1                        0x080001e1   Thumb Code     0  rtexit2.o(.ARM.Collect$$rtexit$$00000002)
    __rt_exit_exit                           0x080001e5   Thumb Code     0  rtexit2.o(.ARM.Collect$$rtexit$$00000004)
    Reset_Handler                            0x080001ed   Thumb Code     8  startup_stm32f10x_hd.o(.text)
    ADC1_2_IRQHandler                        0x08000207   Thumb Code     0  startup_stm32f10x_hd.o(.text)
    ADC3_IRQHandler                          0x08000207   Thumb Code     0  startup_stm32f10x_hd.o(.text)
    CAN1_RX1_IRQHandler                      0x08000207   Thumb Code     0  startup_stm32f10x_hd.o(.text)
    CAN1_SCE_IRQHandler                      0x08000207   Thumb Code     0  startup_stm32f10x_hd.o(.text)
    DMA1_Channel1_IRQHandler                 0x08000207   Thumb Code     0  startup_stm32f10x_hd.o(.text)
    DMA1_Channel2_IRQHandler                 0x08000207   Thumb Code     0  startup_stm32f10x_hd.o(.text)
    DMA1_Channel3_IRQHandler                 0x08000207   Thumb Code     0  startup_stm32f10x_hd.o(.text)
    DMA1_Channel4_IRQHandler                 0x08000207   Thumb Code     0  startup_stm32f10x_hd.o(.text)
    DMA1_Channel5_IRQHandler                 0x08000207   Thumb Code     0  startup_stm32f10x_hd.o(.text)
    DMA1_Channel6_IRQHandler                 0x08000207   Thumb Code     0  startup_stm32f10x_hd.o(.text)
    DMA1_Channel7_IRQHandler                 0x08000207   Thumb Code     0  startup_stm32f10x_hd.o(.text)
    DMA2_Channel1_IRQHandler                 0x08000207   Thumb Code     0  startup_stm32f10x_hd.o(.text)
    DMA2_Channel2_IRQHandler                 0x08000207   Thumb Code     0  startup_stm32f10x_hd.o(.text)
    DMA2_Channel3_IRQHandler                 0x08000207   Thumb Code     0  startup_stm32f10x_hd.o(.text)
    DMA2_Channel4_5_IRQHandler               0x08000207   Thumb Code     0  startup_stm32f10x_hd.o(.text)
    EXTI0_IRQHandler                         0x08000207   Thumb Code     0  startup_stm32f10x_hd.o(.text)
    EXTI15_10_IRQHandler                     0x08000207   Thumb Code     0  startup_stm32f10x_hd.o(.text)
    EXTI1_IRQHandler                         0x08000207   Thumb Code     0  startup_stm32f10x_hd.o(.text)
    EXTI2_IRQHandler                         0x08000207   Thumb Code     0  startup_stm32f10x_hd.o(.text)
    EXTI3_IRQHandler                         0x08000207   Thumb Code     0  startup_stm32f10x_hd.o(.text)
    EXTI4_IRQHandler                         0x08000207   Thumb Code     0  startup_stm32f10x_hd.o(.text)
    EXTI9_5_IRQHandler                       0x08000207   Thumb Code     0  startup_stm32f10x_hd.o(.text)
    FLASH_IRQHandler                         0x08000207   Thumb Code     0  startup_stm32f10x_hd.o(.text)
    FSMC_IRQHandler                          0x08000207   Thumb Code     0  startup_stm32f10x_hd.o(.text)
    I2C1_ER_IRQHandler                       0x08000207   Thumb Code     0  startup_stm32f10x_hd.o(.text)
    I2C1_EV_IRQHandler                       0x08000207   Thumb Code     0  startup_stm32f10x_hd.o(.text)
    I2C2_ER_IRQHandler                       0x08000207   Thumb Code     0  startup_stm32f10x_hd.o(.text)
    I2C2_EV_IRQHandler                       0x08000207   Thumb Code     0  startup_stm32f10x_hd.o(.text)
    PVD_IRQHandler                           0x08000207   Thumb Code     0  startup_stm32f10x_hd.o(.text)
    RCC_IRQHandler                           0x08000207   Thumb Code     0  startup_stm32f10x_hd.o(.text)
    RTCAlarm_IRQHandler                      0x08000207   Thumb Code     0  startup_stm32f10x_hd.o(.text)
    RTC_IRQHandler                           0x08000207   Thumb Code     0  startup_stm32f10x_hd.o(.text)
    SDIO_IRQHandler                          0x08000207   Thumb Code     0  startup_stm32f10x_hd.o(.text)
    SPI1_IRQHandler                          0x08000207   Thumb Code     0  startup_stm32f10x_hd.o(.text)
    SPI2_IRQHandler                          0x08000207   Thumb Code     0  startup_stm32f10x_hd.o(.text)
    SPI3_IRQHandler                          0x08000207   Thumb Code     0  startup_stm32f10x_hd.o(.text)
    TAMPER_IRQHandler                        0x08000207   Thumb Code     0  startup_stm32f10x_hd.o(.text)
    TIM1_BRK_IRQHandler                      0x08000207   Thumb Code     0  startup_stm32f10x_hd.o(.text)
    TIM1_CC_IRQHandler                       0x08000207   Thumb Code     0  startup_stm32f10x_hd.o(.text)
    TIM1_TRG_COM_IRQHandler                  0x08000207   Thumb Code     0  startup_stm32f10x_hd.o(.text)
    TIM1_UP_IRQHandler                       0x08000207   Thumb Code     0  startup_stm32f10x_hd.o(.text)
    TIM2_IRQHandler                          0x08000207   Thumb Code     0  startup_stm32f10x_hd.o(.text)
    TIM3_IRQHandler                          0x08000207   Thumb Code     0  startup_stm32f10x_hd.o(.text)
    TIM4_IRQHandler                          0x08000207   Thumb Code     0  startup_stm32f10x_hd.o(.text)
    TIM5_IRQHandler                          0x08000207   Thumb Code     0  startup_stm32f10x_hd.o(.text)
    TIM6_IRQHandler                          0x08000207   Thumb Code     0  startup_stm32f10x_hd.o(.text)
    TIM7_IRQHandler                          0x08000207   Thumb Code     0  startup_stm32f10x_hd.o(.text)
    TIM8_BRK_IRQHandler                      0x08000207   Thumb Code     0  startup_stm32f10x_hd.o(.text)
    TIM8_CC_IRQHandler                       0x08000207   Thumb Code     0  startup_stm32f10x_hd.o(.text)
    TIM8_TRG_COM_IRQHandler                  0x08000207   Thumb Code     0  startup_stm32f10x_hd.o(.text)
    TIM8_UP_IRQHandler                       0x08000207   Thumb Code     0  startup_stm32f10x_hd.o(.text)
    UART4_IRQHandler                         0x08000207   Thumb Code     0  startup_stm32f10x_hd.o(.text)
    UART5_IRQHandler                         0x08000207   Thumb Code     0  startup_stm32f10x_hd.o(.text)
    USART1_IRQHandler                        0x08000207   Thumb Code     0  startup_stm32f10x_hd.o(.text)
    USART2_IRQHandler                        0x08000207   Thumb Code     0  startup_stm32f10x_hd.o(.text)
    USBWakeUp_IRQHandler                     0x08000207   Thumb Code     0  startup_stm32f10x_hd.o(.text)
    USB_HP_CAN1_TX_IRQHandler                0x08000207   Thumb Code     0  startup_stm32f10x_hd.o(.text)
    USB_LP_CAN1_RX0_IRQHandler               0x08000207   Thumb Code     0  startup_stm32f10x_hd.o(.text)
    WWDG_IRQHandler                          0x08000207   Thumb Code     0  startup_stm32f10x_hd.o(.text)
    __user_initial_stackheap                 0x08000209   Thumb Code     0  startup_stm32f10x_hd.o(.text)
    __2sprintf                               0x0800022d   Thumb Code    34  noretval__2sprintf.o(.text)
    _printf_pre_padding                      0x08000255   Thumb Code    44  _printf_pad.o(.text)
    _printf_post_padding                     0x08000281   Thumb Code    34  _printf_pad.o(.text)
    _printf_int_dec                          0x080002a5   Thumb Code   104  _printf_dec.o(.text)
    __printf                                 0x0800031d   Thumb Code   308  __printf_flags_wp.o(.text)
    strlen                                   0x08000455   Thumb Code    62  strlen.o(.text)
    __use_two_region_memory                  0x08000493   Thumb Code     2  heapauxi.o(.text)
    __rt_heap_escrow$2region                 0x08000495   Thumb Code     2  heapauxi.o(.text)
    __rt_heap_expand$2region                 0x08000497   Thumb Code     2  heapauxi.o(.text)
    _printf_int_common                       0x08000499   Thumb Code   178  _printf_intcommon.o(.text)
    _printf_fp_dec_real                      0x080006fb   Thumb Code   620  _printf_fp_dec.o(.text)
    _printf_char_common                      0x08000973   Thumb Code    32  _printf_char_common.o(.text)
    _sputc                                   0x08000999   Thumb Code    10  _sputc.o(.text)
    __rt_locale                              0x080009a5   Thumb Code     8  rt_locale_intlibspace.o(.text)
    _ll_udiv10                               0x080009ad   Thumb Code   138  lludiv10.o(.text)
    _printf_fp_infnan                        0x08000a39   Thumb Code   112  _printf_fp_infnan.o(.text)
    _btod_etento                             0x08000ab9   Thumb Code   224  bigflt0.o(.text)
    __user_libspace                          0x08000b9d   Thumb Code     8  libspace.o(.text)
    __user_perproc_libspace                  0x08000b9d   Thumb Code     0  libspace.o(.text)
    __user_perthread_libspace                0x08000b9d   Thumb Code     0  libspace.o(.text)
    __user_setup_stackheap                   0x08000ba5   Thumb Code    74  sys_stackheap_outer.o(.text)
    exit                                     0x08000bef   Thumb Code    18  exit.o(.text)
    strcmp                                   0x08000c01   Thumb Code   128  strcmpv7m.o(.text)
    _sys_exit                                0x08000c81   Thumb Code     8  sys_exit.o(.text)
    __I$use$semihosting                      0x08000c8d   Thumb Code     0  use_no_semi.o(.text)
    __use_no_semihosting_swi                 0x08000c8d   Thumb Code     2  use_no_semi.o(.text)
    __semihosting_library_function           0x08000c8f   Thumb Code     0  indicate_semi.o(.text)
    main                                     0x08000c91   Thumb Code    22  my_board.o(.text.$Sub$$main)
    BusFault_Handler                         0x08000ca9   Thumb Code     2  stm32f10x_it.o(.text.BusFault_Handler)
    DWT_Init                                 0x08000cad   Thumb Code    38  delay.o(.text.DWT_Init)
    DebugMon_Handler                         0x08000cd5   Thumb Code     2  stm32f10x_it.o(.text.DebugMon_Handler)
    GPIO_Init                                0x08000cd9   Thumb Code   176  stm32f10x_gpio.o(.text.GPIO_Init)
    GPIO_PinRemapConfig                      0x08000d89   Thumb Code   110  stm32f10x_gpio.o(.text.GPIO_PinRemapConfig)
    GPIO_Pin_Init                            0x08000df9   Thumb Code   102  mygpio.o(.text.GPIO_Pin_Init)
    GPIO_data                                0x08000e61   Thumb Code    60  my_lcd1602.o(.text.GPIO_data)
    HardFault_Handler                        0x08000e9d   Thumb Code     2  stm32f10x_it.o(.text.HardFault_Handler)
    IIC_Init                                 0x08000ea1   Thumb Code    34  my_iic.o(.text.IIC_Init)
    IIC_Recv_Byte                            0x08000ec5   Thumb Code    88  my_iic.o(.text.IIC_Recv_Byte)
    IIC_SendAck                              0x08000f1d   Thumb Code    48  my_iic.o(.text.IIC_SendAck)
    IIC_Send_Byte                            0x08000f4d   Thumb Code    84  my_iic.o(.text.IIC_Send_Byte)
    IIC_Start                                0x08000fa1   Thumb Code    44  my_iic.o(.text.IIC_Start)
    IIC_Stop                                 0x08000fcd   Thumb Code    46  my_iic.o(.text.IIC_Stop)
    IIC_Wait_Ack                             0x08000ffd   Thumb Code    70  my_iic.o(.text.IIC_Wait_Ack)
    LCD1602_Init                             0x08001045   Thumb Code    50  my_lcd1602.o(.text.LCD1602_Init)
    LCD1602_WriteCmd                         0x08001079   Thumb Code    44  my_lcd1602.o(.text.LCD1602_WriteCmd)
    LCD_Busy                                 0x080010a5   Thumb Code   130  my_lcd1602.o(.text.LCD_Busy)
    LCD_En_Toggle                            0x08001129   Thumb Code    26  my_lcd1602.o(.text.LCD_En_Toggle)
    LCD_GPIO_init                            0x08001145   Thumb Code    60  my_lcd1602.o(.text.LCD_GPIO_init)
    MemManage_Handler                        0x08001181   Thumb Code     2  stm32f10x_it.o(.text.MemManage_Handler)
    My_MAX301xx_Init                         0x08001185   Thumb Code    30  my_max301xx_uart.o(.text.My_MAX301xx_Init)
    My_MAX301xx_Uart_GetSPO2                 0x080011a5   Thumb Code    20  my_max301xx_uart.o(.text.My_MAX301xx_Uart_GetSPO2)
    My_MAX301xx_Uart_StateMachine            0x080011b9   Thumb Code   140  my_max301xx_uart.o(.text.My_MAX301xx_Uart_StateMachine)
    My_MLX90614_ReadObjectTemp               0x08001245   Thumb Code   134  my_mlx90614.o(.text.My_MLX90614_ReadObjectTemp)
    My_SysTick_Init                          0x080012cd   Thumb Code    28  my_systick.o(.text.My_SysTick_Init)
    My_USART_Init                            0x080012e9   Thumb Code   128  usart.o(.text.My_USART_Init)
    My_USART_SendByte                        0x08001369   Thumb Code    10  usart.o(.text.My_USART_SendByte)
    My_USART_SendString                      0x08001375   Thumb Code    34  usart.o(.text.My_USART_SendString)
    My_USART_SetReceiveByteHook              0x08001399   Thumb Code    26  usart.o(.text.My_USART_SetReceiveByteHook)
    NMI_Handler                              0x080013b5   Thumb Code     2  stm32f10x_it.o(.text.NMI_Handler)
    NVIC_Configuration                       0x080013b9   Thumb Code     8  my_board.o(.text.NVIC_Configuration)
    NVIC_Init                                0x080013c1   Thumb Code    94  misc.o(.text.NVIC_Init)
    NVIC_PriorityGroupConfig                 0x08001421   Thumb Code    20  misc.o(.text.NVIC_PriorityGroupConfig)
    OnUSART_ReceiveByte                      0x08001435   Thumb Code     2  usart.o(.text.OnUSART_ReceiveByte)
    PendSV_Handler                           0x08001439   Thumb Code     2  stm32f10x_it.o(.text.PendSV_Handler)
    RCC_APB1PeriphClockCmd                   0x0800143d   Thumb Code    24  stm32f10x_rcc.o(.text.RCC_APB1PeriphClockCmd)
    RCC_APB1PeriphResetCmd                   0x08001455   Thumb Code    24  stm32f10x_rcc.o(.text.RCC_APB1PeriphResetCmd)
    RCC_APB2PeriphClockCmd                   0x0800146d   Thumb Code    24  stm32f10x_rcc.o(.text.RCC_APB2PeriphClockCmd)
    RCC_APB2PeriphResetCmd                   0x08001485   Thumb Code    24  stm32f10x_rcc.o(.text.RCC_APB2PeriphResetCmd)
    RCC_GetClocksFreq                        0x0800149d   Thumb Code   160  stm32f10x_rcc.o(.text.RCC_GetClocksFreq)
    SVC_Handler                              0x0800153d   Thumb Code     2  stm32f10x_it.o(.text.SVC_Handler)
    StateMachine_GetStr                      0x080015fd   Thumb Code    50  my_sysdef.o(.text.StateMachine_GetStr)
    SysTick_Handler                          0x08001655   Thumb Code    94  my_systick.o(.text.SysTick_Handler)
    SystemInit                               0x080016b5   Thumb Code    86  system_stm32f10x.o(.text.SystemInit)
    USART3_IRQHandler                        0x0800170d   Thumb Code    50  usart.o(.text.USART3_IRQHandler)
    USART_Cmd                                0x08001741   Thumb Code    18  stm32f10x_usart.o(.text.USART_Cmd)
    USART_DeInit                             0x08001755   Thumb Code   174  stm32f10x_usart.o(.text.USART_DeInit)
    USART_GetITStatus                        0x08001805   Thumb Code    58  stm32f10x_usart.o(.text.USART_GetITStatus)
    USART_ITConfig                           0x08001841   Thumb Code    46  stm32f10x_usart.o(.text.USART_ITConfig)
    USART_Init                               0x08001871   Thumb Code   178  stm32f10x_usart.o(.text.USART_Init)
    USART_ReceiveData                        0x08001925   Thumb Code     8  stm32f10x_usart.o(.text.USART_ReceiveData)
    USART_SendData                           0x0800192d   Thumb Code     8  stm32f10x_usart.o(.text.USART_SendData)
    UsageFault_Handler                       0x08001935   Thumb Code     2  stm32f10x_it.o(.text.UsageFault_Handler)
    delay_us                                 0x08001949   Thumb Code    64  delay.o(.text.delay_us)
    $Super$$main                             0x08001989   Thumb Code   372  main.o(.text.main)
    _btod_d2e                                0x08001afd   Thumb Code    62  btod.o(CL$$btod_d2e)
    _d2e_denorm_low                          0x08001b3b   Thumb Code    70  btod.o(CL$$btod_d2e_denorm_low)
    _d2e_norm_op1                            0x08001b81   Thumb Code    96  btod.o(CL$$btod_d2e_norm_op1)
    __btod_div_common                        0x08001be1   Thumb Code   696  btod.o(CL$$btod_div_common)
    _e2e                                     0x08001f19   Thumb Code   220  btod.o(CL$$btod_e2e)
    _btod_ediv                               0x08001ff5   Thumb Code    42  btod.o(CL$$btod_ediv)
    _btod_emul                               0x0800201f   Thumb Code    42  btod.o(CL$$btod_emul)
    __btod_mult_common                       0x08002049   Thumb Code   580  btod.o(CL$$btod_mult_common)
    __ARM_fpclassify                         0x0800228d   Thumb Code    40  fpclassify.o(i.__ARM_fpclassify)
    _is_digit                                0x080022b5   Thumb Code    14  __printf_wp.o(i._is_digit)
    _get_lc_numeric                          0x080022c5   Thumb Code    44  lc_numeric_c.o(locale$$code)
    __aeabi_d2f                              0x080022f1   Thumb Code     0  d2f.o(x$fpl$d2f)
    _d2f                                     0x080022f1   Thumb Code    98  d2f.o(x$fpl$d2f)
    __aeabi_dadd                             0x08002355   Thumb Code     0  daddsub_clz.o(x$fpl$dadd)
    _dadd                                    0x08002355   Thumb Code   332  daddsub_clz.o(x$fpl$dadd)
    __aeabi_i2d                              0x080024a5   Thumb Code     0  dflt_clz.o(x$fpl$dflt)
    _dflt                                    0x080024a5   Thumb Code    46  dflt_clz.o(x$fpl$dflt)
    __aeabi_dmul                             0x080024d5   Thumb Code     0  dmul.o(x$fpl$dmul)
    _dmul                                    0x080024d5   Thumb Code   332  dmul.o(x$fpl$dmul)
    __fpl_dnaninf                            0x08002629   Thumb Code   156  dnaninf.o(x$fpl$dnaninf)
    __fpl_dretinf                            0x080026c5   Thumb Code    12  dretinf.o(x$fpl$dretinf)
    __aeabi_dsub                             0x080026d1   Thumb Code     0  daddsub_clz.o(x$fpl$dsub)
    _dsub                                    0x080026d1   Thumb Code   464  daddsub_clz.o(x$fpl$dsub)
    __aeabi_f2d                              0x080028a5   Thumb Code     0  f2d.o(x$fpl$f2d)
    _f2d                                     0x080028a5   Thumb Code    86  f2d.o(x$fpl$f2d)
    __fpl_fnaninf                            0x080028fb   Thumb Code   140  fnaninf.o(x$fpl$fnaninf)
    __fpl_fretinf                            0x08002987   Thumb Code    10  fretinf.o(x$fpl$fretinf)
    _printf_fp_dec                           0x08002991   Thumb Code     4  printf1.o(x$fpl$printf1)
    __I$use$fp                               0x08002994   Number         0  usenofp.o(x$fpl$usenofp)
    Region$$Table$$Base                      0x08002a58   Number         0  anon$$obj.o(Region$$Table)
    Region$$Table$$Limit                     0x08002a78   Number         0  anon$$obj.o(Region$$Table)
    OnUSART3_ReceiveByte                     0x20000000   Data           4  usart.o(.data.OnUSART3_ReceiveByte)
    SystemCoreClock                          0x20000004   Data           4  system_stm32f10x.o(.data.SystemCoreClock)
    lcd_back                                 0x20000008   Data           2  main.o(.data.lcd_back)
    __libspace_start                         0x20000010   Data          96  libspace.o(.bss)
    DataH                                    0x20000070   Data           1  my_mlx90614.o(.bss.DataH)
    __temporary_stack_top$libspace           0x20000070   Data           0  libspace.o(.bss)
    DataL                                    0x20000071   Data           1  my_mlx90614.o(.bss.DataL)
    Pecreg                                   0x20000075   Data           1  my_mlx90614.o(.bss.Pecreg)
    SPO2_max301xx                            0x20000076   Data           1  my_max301xx_uart.o(.bss.SPO2_max301xx)
    dis0                                     0x20000077   Data          32  main.o(.bss.dis0)
    gpiohigh                                 0x20000098   Data           4  main.o(.bss.gpiohigh)
    myReadFlag_tick                          0x2000009c   Data           1  my_systick.o(.bss.myReadFlag_tick)
    mySendFlag_tick                          0x2000009d   Data           1  my_systick.o(.bss.mySendFlag_tick)
    readTemp                                 0x200000a0   Data           4  main.o(.bss.readTemp)



==============================================================================

Memory Map of the image

  Image Entry point : 0x08000131

  Load Region LR_IROM1 (Base: 0x08000000, Size: 0x00002aa8, Max: 0x00020000, ABSOLUTE)

    Execution Region ER_IROM1 (Exec base: 0x08000000, Load base: 0x08000000, Size: 0x00002a94, Max: 0x00020000, ABSOLUTE)

    Exec Addr    Load Addr    Size         Type   Attr      Idx    E Section Name        Object

    0x08000000   0x08000000   0x00000130   Data   RO          239    RESET               startup_stm32f10x_hd.o
    0x08000130   0x08000130   0x00000008   Code   RO         1459  * !!!main             c_w.l(__main.o)
    0x08000138   0x08000138   0x00000034   Code   RO         1713    !!!scatter          c_w.l(__scatter.o)
    0x0800016c   0x0800016c   0x0000001a   Code   RO         1715    !!handler_copy      c_w.l(__scatter_copy.o)
    0x08000186   0x08000186   0x00000002   PAD
    0x08000188   0x08000188   0x0000001c   Code   RO         1717    !!handler_zi        c_w.l(__scatter_zi.o)
    0x080001a4   0x080001a4   0x00000000   Code   RO         1452    .ARM.Collect$$_printf_percent$$00000000  c_w.l(_printf_percent.o)
    0x080001a4   0x080001a4   0x00000006   Code   RO         1451    .ARM.Collect$$_printf_percent$$00000003  c_w.l(_printf_f.o)
    0x080001aa   0x080001aa   0x00000006   Code   RO         1450    .ARM.Collect$$_printf_percent$$00000009  c_w.l(_printf_d.o)
    0x080001b0   0x080001b0   0x00000004   Code   RO         1492    .ARM.Collect$$_printf_percent$$00000017  c_w.l(_printf_percent_end.o)
    0x080001b4   0x080001b4   0x00000002   Code   RO         1578    .ARM.Collect$$libinit$$00000000  c_w.l(libinit.o)
    0x080001b6   0x080001b6   0x00000000   Code   RO         1580    .ARM.Collect$$libinit$$00000002  c_w.l(libinit2.o)
    0x080001b6   0x080001b6   0x00000000   Code   RO         1582    .ARM.Collect$$libinit$$00000004  c_w.l(libinit2.o)
    0x080001b6   0x080001b6   0x00000000   Code   RO         1585    .ARM.Collect$$libinit$$0000000A  c_w.l(libinit2.o)
    0x080001b6   0x080001b6   0x00000000   Code   RO         1587    .ARM.Collect$$libinit$$0000000C  c_w.l(libinit2.o)
    0x080001b6   0x080001b6   0x00000000   Code   RO         1589    .ARM.Collect$$libinit$$0000000E  c_w.l(libinit2.o)
    0x080001b6   0x080001b6   0x00000006   Code   RO         1590    .ARM.Collect$$libinit$$0000000F  c_w.l(libinit2.o)
    0x080001bc   0x080001bc   0x00000000   Code   RO         1592    .ARM.Collect$$libinit$$00000011  c_w.l(libinit2.o)
    0x080001bc   0x080001bc   0x00000000   Code   RO         1594    .ARM.Collect$$libinit$$00000013  c_w.l(libinit2.o)
    0x080001bc   0x080001bc   0x00000000   Code   RO         1596    .ARM.Collect$$libinit$$00000015  c_w.l(libinit2.o)
    0x080001bc   0x080001bc   0x0000000a   Code   RO         1597    .ARM.Collect$$libinit$$00000016  c_w.l(libinit2.o)
    0x080001c6   0x080001c6   0x00000000   Code   RO         1598    .ARM.Collect$$libinit$$00000017  c_w.l(libinit2.o)
    0x080001c6   0x080001c6   0x00000000   Code   RO         1600    .ARM.Collect$$libinit$$00000019  c_w.l(libinit2.o)
    0x080001c6   0x080001c6   0x00000000   Code   RO         1602    .ARM.Collect$$libinit$$0000001B  c_w.l(libinit2.o)
    0x080001c6   0x080001c6   0x00000000   Code   RO         1604    .ARM.Collect$$libinit$$0000001D  c_w.l(libinit2.o)
    0x080001c6   0x080001c6   0x00000000   Code   RO         1606    .ARM.Collect$$libinit$$0000001F  c_w.l(libinit2.o)
    0x080001c6   0x080001c6   0x00000000   Code   RO         1608    .ARM.Collect$$libinit$$00000021  c_w.l(libinit2.o)
    0x080001c6   0x080001c6   0x00000000   Code   RO         1610    .ARM.Collect$$libinit$$00000023  c_w.l(libinit2.o)
    0x080001c6   0x080001c6   0x00000000   Code   RO         1612    .ARM.Collect$$libinit$$00000025  c_w.l(libinit2.o)
    0x080001c6   0x080001c6   0x00000000   Code   RO         1616    .ARM.Collect$$libinit$$0000002C  c_w.l(libinit2.o)
    0x080001c6   0x080001c6   0x00000000   Code   RO         1618    .ARM.Collect$$libinit$$0000002E  c_w.l(libinit2.o)
    0x080001c6   0x080001c6   0x00000000   Code   RO         1620    .ARM.Collect$$libinit$$00000030  c_w.l(libinit2.o)
    0x080001c6   0x080001c6   0x00000000   Code   RO         1622    .ARM.Collect$$libinit$$00000032  c_w.l(libinit2.o)
    0x080001c6   0x080001c6   0x00000002   Code   RO         1623    .ARM.Collect$$libinit$$00000033  c_w.l(libinit2.o)
    0x080001c8   0x080001c8   0x00000002   Code   RO         1659    .ARM.Collect$$libshutdown$$00000000  c_w.l(libshutdown.o)
    0x080001ca   0x080001ca   0x00000000   Code   RO         1670    .ARM.Collect$$libshutdown$$00000002  c_w.l(libshutdown2.o)
    0x080001ca   0x080001ca   0x00000000   Code   RO         1672    .ARM.Collect$$libshutdown$$00000004  c_w.l(libshutdown2.o)
    0x080001ca   0x080001ca   0x00000000   Code   RO         1675    .ARM.Collect$$libshutdown$$00000007  c_w.l(libshutdown2.o)
    0x080001ca   0x080001ca   0x00000000   Code   RO         1678    .ARM.Collect$$libshutdown$$0000000A  c_w.l(libshutdown2.o)
    0x080001ca   0x080001ca   0x00000000   Code   RO         1680    .ARM.Collect$$libshutdown$$0000000C  c_w.l(libshutdown2.o)
    0x080001ca   0x080001ca   0x00000000   Code   RO         1683    .ARM.Collect$$libshutdown$$0000000F  c_w.l(libshutdown2.o)
    0x080001ca   0x080001ca   0x00000002   Code   RO         1684    .ARM.Collect$$libshutdown$$00000010  c_w.l(libshutdown2.o)
    0x080001cc   0x080001cc   0x00000000   Code   RO         1481    .ARM.Collect$$rtentry$$00000000  c_w.l(__rtentry.o)
    0x080001cc   0x080001cc   0x00000000   Code   RO         1503    .ARM.Collect$$rtentry$$00000002  c_w.l(__rtentry2.o)
    0x080001cc   0x080001cc   0x00000006   Code   RO         1515    .ARM.Collect$$rtentry$$00000004  c_w.l(__rtentry4.o)
    0x080001d2   0x080001d2   0x00000000   Code   RO         1505    .ARM.Collect$$rtentry$$00000009  c_w.l(__rtentry2.o)
    0x080001d2   0x080001d2   0x00000004   Code   RO         1506    .ARM.Collect$$rtentry$$0000000A  c_w.l(__rtentry2.o)
    0x080001d6   0x080001d6   0x00000000   Code   RO         1508    .ARM.Collect$$rtentry$$0000000C  c_w.l(__rtentry2.o)
    0x080001d6   0x080001d6   0x00000008   Code   RO         1509    .ARM.Collect$$rtentry$$0000000D  c_w.l(__rtentry2.o)
    0x080001de   0x080001de   0x00000002   Code   RO         1624    .ARM.Collect$$rtexit$$00000000  c_w.l(rtexit.o)
    0x080001e0   0x080001e0   0x00000000   Code   RO         1633    .ARM.Collect$$rtexit$$00000002  c_w.l(rtexit2.o)
    0x080001e0   0x080001e0   0x00000004   Code   RO         1634    .ARM.Collect$$rtexit$$00000003  c_w.l(rtexit2.o)
    0x080001e4   0x080001e4   0x00000006   Code   RO         1635    .ARM.Collect$$rtexit$$00000004  c_w.l(rtexit2.o)
    0x080001ea   0x080001ea   0x00000002   PAD
    0x080001ec   0x080001ec   0x00000040   Code   RO          240    .text               startup_stm32f10x_hd.o
    0x0800022c   0x0800022c   0x00000028   Code   RO         1422    .text               c_w.l(noretval__2sprintf.o)
    0x08000254   0x08000254   0x0000004e   Code   RO         1426    .text               c_w.l(_printf_pad.o)
    0x080002a2   0x080002a2   0x00000002   PAD
    0x080002a4   0x080002a4   0x00000078   Code   RO         1428    .text               c_w.l(_printf_dec.o)
    0x0800031c   0x0800031c   0x00000138   Code   RO         1442    .text               c_w.l(__printf_flags_wp.o)
    0x08000454   0x08000454   0x0000003e   Code   RO         1453    .text               c_w.l(strlen.o)
    0x08000492   0x08000492   0x00000006   Code   RO         1457    .text               c_w.l(heapauxi.o)
    0x08000498   0x08000498   0x000000b2   Code   RO         1482    .text               c_w.l(_printf_intcommon.o)
    0x0800054a   0x0800054a   0x0000041c   Code   RO         1484    .text               c_w.l(_printf_fp_dec.o)
    0x08000966   0x08000966   0x00000002   PAD
    0x08000968   0x08000968   0x00000030   Code   RO         1488    .text               c_w.l(_printf_char_common.o)
    0x08000998   0x08000998   0x0000000a   Code   RO         1490    .text               c_w.l(_sputc.o)
    0x080009a2   0x080009a2   0x00000002   PAD
    0x080009a4   0x080009a4   0x00000008   Code   RO         1520    .text               c_w.l(rt_locale_intlibspace.o)
    0x080009ac   0x080009ac   0x0000008a   Code   RO         1522    .text               c_w.l(lludiv10.o)
    0x08000a36   0x08000a36   0x00000002   PAD
    0x08000a38   0x08000a38   0x00000080   Code   RO         1524    .text               c_w.l(_printf_fp_infnan.o)
    0x08000ab8   0x08000ab8   0x000000e4   Code   RO         1528    .text               c_w.l(bigflt0.o)
    0x08000b9c   0x08000b9c   0x00000008   Code   RO         1562    .text               c_w.l(libspace.o)
    0x08000ba4   0x08000ba4   0x0000004a   Code   RO         1565    .text               c_w.l(sys_stackheap_outer.o)
    0x08000bee   0x08000bee   0x00000012   Code   RO         1569    .text               c_w.l(exit.o)
    0x08000c00   0x08000c00   0x00000080   Code   RO         1571    .text               c_w.l(strcmpv7m.o)
    0x08000c80   0x08000c80   0x0000000c   Code   RO         1645    .text               c_w.l(sys_exit.o)
    0x08000c8c   0x08000c8c   0x00000002   Code   RO         1660    .text               c_w.l(use_no_semi.o)
    0x08000c8e   0x08000c8e   0x00000000   Code   RO         1662    .text               c_w.l(indicate_semi.o)
    0x08000c8e   0x08000c8e   0x00000002   PAD
    0x08000c90   0x08000c90   0x00000016   Code   RO           40    .text.$Sub$$main    my_board.o
    0x08000ca6   0x08000ca6   0x00000002   PAD
    0x08000ca8   0x08000ca8   0x00000002   Code   RO            8    .text.BusFault_Handler  stm32f10x_it.o
    0x08000caa   0x08000caa   0x00000002   PAD
    0x08000cac   0x08000cac   0x00000026   Code   RO          113    .text.DWT_Init      delay.o
    0x08000cd2   0x08000cd2   0x00000002   PAD
    0x08000cd4   0x08000cd4   0x00000002   Code   RO           14    .text.DebugMon_Handler  stm32f10x_it.o
    0x08000cd6   0x08000cd6   0x00000002   PAD
    0x08000cd8   0x08000cd8   0x000000b0   Code   RO          270    .text.GPIO_Init     stm32f10x_gpio.o
    0x08000d88   0x08000d88   0x0000006e   Code   RO          296    .text.GPIO_PinRemapConfig  stm32f10x_gpio.o
    0x08000df6   0x08000df6   0x00000002   PAD
    0x08000df8   0x08000df8   0x00000066   Code   RO          154    .text.GPIO_Pin_Init  mygpio.o
    0x08000e5e   0x08000e5e   0x00000002   PAD
    0x08000e60   0x08000e60   0x0000003c   Code   RO           54    .text.GPIO_data     my_lcd1602.o
    0x08000e9c   0x08000e9c   0x00000002   Code   RO            4    .text.HardFault_Handler  stm32f10x_it.o
    0x08000e9e   0x08000e9e   0x00000002   PAD
    0x08000ea0   0x08000ea0   0x00000022   Code   RO          195    .text.IIC_Init      my_iic.o
    0x08000ec2   0x08000ec2   0x00000002   PAD
    0x08000ec4   0x08000ec4   0x00000058   Code   RO          207    .text.IIC_Recv_Byte  my_iic.o
    0x08000f1c   0x08000f1c   0x00000030   Code   RO          203    .text.IIC_SendAck   my_iic.o
    0x08000f4c   0x08000f4c   0x00000054   Code   RO          205    .text.IIC_Send_Byte  my_iic.o
    0x08000fa0   0x08000fa0   0x0000002c   Code   RO          197    .text.IIC_Start     my_iic.o
    0x08000fcc   0x08000fcc   0x0000002e   Code   RO          199    .text.IIC_Stop      my_iic.o
    0x08000ffa   0x08000ffa   0x00000002   PAD
    0x08000ffc   0x08000ffc   0x00000046   Code   RO          201    .text.IIC_Wait_Ack  my_iic.o
    0x08001042   0x08001042   0x00000002   PAD
    0x08001044   0x08001044   0x00000032   Code   RO           66    .text.LCD1602_Init  my_lcd1602.o
    0x08001076   0x08001076   0x00000002   PAD
    0x08001078   0x08001078   0x0000002c   Code   RO           60    .text.LCD1602_WriteCmd  my_lcd1602.o
    0x080010a4   0x080010a4   0x00000082   Code   RO           58    .text.LCD_Busy      my_lcd1602.o
    0x08001126   0x08001126   0x00000002   PAD
    0x08001128   0x08001128   0x0000001a   Code   RO           56    .text.LCD_En_Toggle  my_lcd1602.o
    0x08001142   0x08001142   0x00000002   PAD
    0x08001144   0x08001144   0x0000003c   Code   RO           52    .text.LCD_GPIO_init  my_lcd1602.o
    0x08001180   0x08001180   0x00000002   Code   RO            6    .text.MemManage_Handler  stm32f10x_it.o
    0x08001182   0x08001182   0x00000002   PAD
    0x08001184   0x08001184   0x0000001e   Code   RO           82    .text.My_MAX301xx_Init  my_max301xx_uart.o
    0x080011a2   0x080011a2   0x00000002   PAD
    0x080011a4   0x080011a4   0x00000014   Code   RO           86    .text.My_MAX301xx_Uart_GetSPO2  my_max301xx_uart.o
    0x080011b8   0x080011b8   0x0000008c   Code   RO           84    .text.My_MAX301xx_Uart_StateMachine  my_max301xx_uart.o
    0x08001244   0x08001244   0x00000086   Code   RO          101    .text.My_MLX90614_ReadObjectTemp  my_mlx90614.o
    0x080012ca   0x080012ca   0x00000002   PAD
    0x080012cc   0x080012cc   0x0000001c   Code   RO          171    .text.My_SysTick_Init  my_systick.o
    0x080012e8   0x080012e8   0x00000080   Code   RO          136    .text.My_USART_Init  usart.o
    0x08001368   0x08001368   0x0000000a   Code   RO          130    .text.My_USART_SendByte  usart.o
    0x08001372   0x08001372   0x00000002   PAD
    0x08001374   0x08001374   0x00000022   Code   RO          134    .text.My_USART_SendString  usart.o
    0x08001396   0x08001396   0x00000002   PAD
    0x08001398   0x08001398   0x0000001a   Code   RO          128    .text.My_USART_SetReceiveByteHook  usart.o
    0x080013b2   0x080013b2   0x00000002   PAD
    0x080013b4   0x080013b4   0x00000002   Code   RO            2    .text.NMI_Handler   stm32f10x_it.o
    0x080013b6   0x080013b6   0x00000002   PAD
    0x080013b8   0x080013b8   0x00000008   Code   RO           42    .text.NVIC_Configuration  my_board.o
    0x080013c0   0x080013c0   0x0000005e   Code   RO          455    .text.NVIC_Init     misc.o
    0x0800141e   0x0800141e   0x00000002   PAD
    0x08001420   0x08001420   0x00000014   Code   RO          453    .text.NVIC_PriorityGroupConfig  misc.o
    0x08001434   0x08001434   0x00000002   Code   RO          126    .text.OnUSART_ReceiveByte  usart.o
    0x08001436   0x08001436   0x00000002   PAD
    0x08001438   0x08001438   0x00000002   Code   RO           16    .text.PendSV_Handler  stm32f10x_it.o
    0x0800143a   0x0800143a   0x00000002   PAD
    0x0800143c   0x0800143c   0x00000018   Code   RO          357    .text.RCC_APB1PeriphClockCmd  stm32f10x_rcc.o
    0x08001454   0x08001454   0x00000018   Code   RO          361    .text.RCC_APB1PeriphResetCmd  stm32f10x_rcc.o
    0x0800146c   0x0800146c   0x00000018   Code   RO          355    .text.RCC_APB2PeriphClockCmd  stm32f10x_rcc.o
    0x08001484   0x08001484   0x00000018   Code   RO          359    .text.RCC_APB2PeriphResetCmd  stm32f10x_rcc.o
    0x0800149c   0x0800149c   0x000000a0   Code   RO          351    .text.RCC_GetClocksFreq  stm32f10x_rcc.o
    0x0800153c   0x0800153c   0x00000002   Code   RO           12    .text.SVC_Handler   stm32f10x_it.o
    0x0800153e   0x0800153e   0x00000002   PAD
    0x08001540   0x08001540   0x00000004   Code   RO          249    .text.SetSysClock   system_stm32f10x.o
    0x08001544   0x08001544   0x000000b6   Code   RO          253    .text.SetSysClockTo24  system_stm32f10x.o
    0x080015fa   0x080015fa   0x00000002   PAD
    0x080015fc   0x080015fc   0x00000032   Code   RO          228    .text.StateMachine_GetStr  my_sysdef.o
    0x0800162e   0x0800162e   0x00000002   PAD
    0x08001630   0x08001630   0x00000024   Code   RO          173    .text.SysTick_Config  my_systick.o
    0x08001654   0x08001654   0x0000005e   Code   RO          177    .text.SysTick_Handler  my_systick.o
    0x080016b2   0x080016b2   0x00000002   PAD
    0x080016b4   0x080016b4   0x00000056   Code   RO          247    .text.SystemInit    system_stm32f10x.o
    0x0800170a   0x0800170a   0x00000002   PAD
    0x0800170c   0x0800170c   0x00000032   Code   RO          138    .text.USART3_IRQHandler  usart.o
    0x0800173e   0x0800173e   0x00000002   PAD
    0x08001740   0x08001740   0x00000012   Code   RO          396    .text.USART_Cmd     stm32f10x_usart.o
    0x08001752   0x08001752   0x00000002   PAD
    0x08001754   0x08001754   0x000000ae   Code   RO          386    .text.USART_DeInit  stm32f10x_usart.o
    0x08001802   0x08001802   0x00000002   PAD
    0x08001804   0x08001804   0x0000003a   Code   RO          440    .text.USART_GetITStatus  stm32f10x_usart.o
    0x0800183e   0x0800183e   0x00000002   PAD
    0x08001840   0x08001840   0x0000002e   Code   RO          398    .text.USART_ITConfig  stm32f10x_usart.o
    0x0800186e   0x0800186e   0x00000002   PAD
    0x08001870   0x08001870   0x000000b2   Code   RO          388    .text.USART_Init    stm32f10x_usart.o
    0x08001922   0x08001922   0x00000002   PAD
    0x08001924   0x08001924   0x00000008   Code   RO          414    .text.USART_ReceiveData  stm32f10x_usart.o
    0x0800192c   0x0800192c   0x00000008   Code   RO          412    .text.USART_SendData  stm32f10x_usart.o
    0x08001934   0x08001934   0x00000002   Code   RO           10    .text.UsageFault_Handler  stm32f10x_it.o
    0x08001936   0x08001936   0x00000002   PAD
    0x08001938   0x08001938   0x0000000e   Code   RO          181    .text.__NVIC_SetPriority  my_systick.o
    0x08001946   0x08001946   0x00000002   PAD
    0x08001948   0x08001948   0x00000040   Code   RO          115    .text.delay_us      delay.o
    0x08001988   0x08001988   0x00000174   Code   RO           26    .text.main          main.o
    0x08001afc   0x08001afc   0x0000003e   Code   RO         1531    CL$$btod_d2e        c_w.l(btod.o)
    0x08001b3a   0x08001b3a   0x00000046   Code   RO         1533    CL$$btod_d2e_denorm_low  c_w.l(btod.o)
    0x08001b80   0x08001b80   0x00000060   Code   RO         1532    CL$$btod_d2e_norm_op1  c_w.l(btod.o)
    0x08001be0   0x08001be0   0x00000338   Code   RO         1541    CL$$btod_div_common  c_w.l(btod.o)
    0x08001f18   0x08001f18   0x000000dc   Code   RO         1538    CL$$btod_e2e        c_w.l(btod.o)
    0x08001ff4   0x08001ff4   0x0000002a   Code   RO         1535    CL$$btod_ediv       c_w.l(btod.o)
    0x0800201e   0x0800201e   0x0000002a   Code   RO         1534    CL$$btod_emul       c_w.l(btod.o)
    0x08002048   0x08002048   0x00000244   Code   RO         1540    CL$$btod_mult_common  c_w.l(btod.o)
    0x0800228c   0x0800228c   0x00000028   Code   RO         1560    i.__ARM_fpclassify  m_ws.l(fpclassify.o)
    0x080022b4   0x080022b4   0x0000000e   Code   RO         1440    i._is_digit         c_w.l(__printf_wp.o)
    0x080022c2   0x080022c2   0x00000002   PAD
    0x080022c4   0x080022c4   0x0000002c   Code   RO         1556    locale$$code        c_w.l(lc_numeric_c.o)
    0x080022f0   0x080022f0   0x00000062   Code   RO         1461    x$fpl$d2f           fz_ws.l(d2f.o)
    0x08002352   0x08002352   0x00000002   PAD
    0x08002354   0x08002354   0x00000150   Code   RO         1463    x$fpl$dadd          fz_ws.l(daddsub_clz.o)
    0x080024a4   0x080024a4   0x0000002e   Code   RO         1470    x$fpl$dflt          fz_ws.l(dflt_clz.o)
    0x080024d2   0x080024d2   0x00000002   PAD
    0x080024d4   0x080024d4   0x00000154   Code   RO         1475    x$fpl$dmul          fz_ws.l(dmul.o)
    0x08002628   0x08002628   0x0000009c   Code   RO         1493    x$fpl$dnaninf       fz_ws.l(dnaninf.o)
    0x080026c4   0x080026c4   0x0000000c   Code   RO         1495    x$fpl$dretinf       fz_ws.l(dretinf.o)
    0x080026d0   0x080026d0   0x000001d4   Code   RO         1465    x$fpl$dsub          fz_ws.l(daddsub_clz.o)
    0x080028a4   0x080028a4   0x00000056   Code   RO         1477    x$fpl$f2d           fz_ws.l(f2d.o)
    0x080028fa   0x080028fa   0x0000008c   Code   RO         1497    x$fpl$fnaninf       fz_ws.l(fnaninf.o)
    0x08002986   0x08002986   0x0000000a   Code   RO         1499    x$fpl$fretinf       fz_ws.l(fretinf.o)
    0x08002990   0x08002990   0x00000004   Code   RO         1479    x$fpl$printf1       fz_ws.l(printf1.o)
    0x08002994   0x08002994   0x00000000   Code   RO         1501    x$fpl$usenofp       fz_ws.l(usenofp.o)
    0x08002994   0x08002994   0x00000011   Data   RO         1443    .constdata          c_w.l(__printf_flags_wp.o)
    0x080029a5   0x080029a5   0x00000003   PAD
    0x080029a8   0x080029a8   0x00000094   Data   RO         1529    .constdata          c_w.l(bigflt0.o)
    0x08002a3c   0x08002a3c   0x00000004   Data   RO          376    .rodata.ADCPrescTable  stm32f10x_rcc.o
    0x08002a40   0x08002a40   0x00000010   Data   RO          375    .rodata.APBAHBPrescTable  stm32f10x_rcc.o
    0x08002a50   0x08002a50   0x00000008   Data   RO           72    .rodata.cst8        my_lcd1602.o
    0x08002a58   0x08002a58   0x00000020   Data   RO         1712    Region$$Table       anon$$obj.o
    0x08002a78   0x08002a78   0x0000001c   Data   RO         1555    locale$$data        c_w.l(lc_numeric_c.o)


    Execution Region RW_IRAM1 (Exec base: 0x20000000, Load base: 0x08002a98, Size: 0x000008a8, Max: 0x00005000, ABSOLUTE)

    Exec Addr    Load Addr    Size         Type   Attr      Idx    E Section Name        Object

    0x20000000   0x08002a98   0x00000004   Data   RW          143    .data.OnUSART3_ReceiveByte  usart.o
    0x20000004   0x08002a9c   0x00000004   Data   RW          255    .data.SystemCoreClock  system_stm32f10x.o
    0x20000008   0x08002aa0   0x00000002   Data   RW           29    .data.lcd_back      main.o
    0x2000000a   0x08002aa2   0x00000006   PAD
    0x20000010        -       0x00000060   Zero   RW         1563    .bss                c_w.l(libspace.o)
    0x20000070        -       0x00000001   Zero   RW          104    .bss.DataH          my_mlx90614.o
    0x20000071        -       0x00000001   Zero   RW          103    .bss.DataL          my_mlx90614.o
    0x20000072        -       0x00000001   Zero   RW           91    .bss.My_MAX301xx_Uart_StateMachine.SPO2_temp  my_max301xx_uart.o
    0x20000073        -       0x00000001   Zero   RW           90    .bss.My_MAX301xx_Uart_StateMachine.index_dat_SPO2  my_max301xx_uart.o
    0x20000074        -       0x00000001   Zero   RW           89    .bss.My_MAX301xx_Uart_StateMachine.state_SPO2  my_max301xx_uart.o
    0x20000075        -       0x00000001   Zero   RW          105    .bss.Pecreg         my_mlx90614.o
    0x20000076        -       0x00000001   Zero   RW           88    .bss.SPO2_max301xx  my_max301xx_uart.o
    0x20000077        -       0x00000020   Zero   RW           31    .bss.dis0           main.o
    0x20000097   0x08002aa2   0x00000001   PAD
    0x20000098        -       0x00000004   Zero   RW           30    .bss.gpiohigh       main.o
    0x2000009c        -       0x00000001   Zero   RW          185    .bss.myReadFlag_tick  my_systick.o
    0x2000009d        -       0x00000001   Zero   RW          184    .bss.mySendFlag_tick  my_systick.o
    0x2000009e   0x08002aa2   0x00000002   PAD
    0x200000a0        -       0x00000004   Zero   RW           28    .bss.readTemp       main.o
    0x200000a4        -       0x00000004   Zero   RW          183    .bss.sysTicks       my_systick.o
    0x200000a8        -       0x00000400   Zero   RW          238    HEAP                startup_stm32f10x_hd.o
    0x200004a8        -       0x00000400   Zero   RW          237    STACK               startup_stm32f10x_hd.o


==============================================================================

Image component sizes


      Code (inc. data)   RO Data    RW Data    ZI Data      Debug   Object Name

       102          0          0          0          0       1693   delay.o
       372         40          0          2         40       1749   main.o
       114          0          0          0          0       3153   misc.o
        30          0          0          0          0        651   my_board.o
       414          0          0          0          0       4407   my_iic.o
       370          0          8          0          0       3512   my_lcd1602.o
       190         20          0          0          4       1608   my_max301xx_uart.o
       134          0          0          0          3        724   my_mlx90614.o
        50          0          0          0          0        931   my_sysdef.o
       172          0          0          0          6       3841   my_systick.o
       102          0          0          0          0       2605   mygpio.o
        64         26        304          0       2048        860   startup_stm32f10x_hd.o
       286          0          0          0          0       5486   stm32f10x_gpio.o
        16          0          0          0          0        965   stm32f10x_it.o
       256          0         20          0          0       7155   stm32f10x_rcc.o
       490          0          0          0          0       7432   stm32f10x_usart.o
       272          0          0          4          0       2645   system_stm32f10x.o
       250          0          0          4          0       5290   usart.o

    ----------------------------------------------------------------------
      3756         86        364         12       2108      54707   Object Totals
         0          0         32          0          0          0   (incl. Generated)
        72          0          0          2          7          0   (incl. Padding)

    ----------------------------------------------------------------------

      Code (inc. data)   RO Data    RW Data    ZI Data      Debug   Library Member Name

         8          0          0          0          0         68   __main.o
       312          4         17          0          0         92   __printf_flags_wp.o
        14          0          0          0          0         68   __printf_wp.o
         0          0          0          0          0          0   __rtentry.o
        12          0          0          0          0          0   __rtentry2.o
         6          0          0          0          0          0   __rtentry4.o
        52          8          0          0          0          0   __scatter.o
        26          0          0          0          0          0   __scatter_copy.o
        28          0          0          0          0          0   __scatter_zi.o
        48          6          0          0          0         96   _printf_char_common.o
         6          0          0          0          0          0   _printf_d.o
       120         16          0          0          0         92   _printf_dec.o
         6          0          0          0          0          0   _printf_f.o
      1052          0          0          0          0        148   _printf_fp_dec.o
       128         16          0          0          0         84   _printf_fp_infnan.o
       178          0          0          0          0         88   _printf_intcommon.o
        78          0          0          0          0        108   _printf_pad.o
         0          0          0          0          0          0   _printf_percent.o
         4          0          0          0          0          0   _printf_percent_end.o
        10          0          0          0          0         68   _sputc.o
       228          4        148          0          0         96   bigflt0.o
      1936        128          0          0          0        672   btod.o
        18          0          0          0          0         80   exit.o
         6          0          0          0          0        152   heapauxi.o
         0          0          0          0          0          0   indicate_semi.o
        44         10         28          0          0         76   lc_numeric_c.o
         2          0          0          0          0          0   libinit.o
        18          0          0          0          0          0   libinit2.o
         2          0          0          0          0          0   libshutdown.o
         2          0          0          0          0          0   libshutdown2.o
         8          4          0          0         96         68   libspace.o
       138          0          0          0          0         80   lludiv10.o
        40          6          0          0          0         84   noretval__2sprintf.o
         8          4          0          0          0         68   rt_locale_intlibspace.o
         2          0          0          0          0          0   rtexit.o
        10          0          0          0          0          0   rtexit2.o
       128          0          0          0          0         68   strcmpv7m.o
        62          0          0          0          0         76   strlen.o
        12          4          0          0          0         68   sys_exit.o
        74          0          0          0          0         80   sys_stackheap_outer.o
         2          0          0          0          0         68   use_no_semi.o
        98          4          0          0          0         92   d2f.o
       804         16          0          0          0        280   daddsub_clz.o
        46          0          0          0          0         68   dflt_clz.o
       340         12          0          0          0        104   dmul.o
       156          4          0          0          0         92   dnaninf.o
        12          0          0          0          0         68   dretinf.o
        86          4          0          0          0         84   f2d.o
       140          4          0          0          0         84   fnaninf.o
        10          0          0          0          0         68   fretinf.o
         4          0          0          0          0         68   printf1.o
         0          0          0          0          0          0   usenofp.o
        40          0          0          0          0         68   fpclassify.o

    ----------------------------------------------------------------------
      6584        254        196          0         96       3724   Library Totals
        20          0          3          0          0          0   (incl. Padding)

    ----------------------------------------------------------------------

      Code (inc. data)   RO Data    RW Data    ZI Data      Debug   Library Name

      4828        210        193          0         96       2648   c_w.l
      1696         44          0          0          0       1008   fz_ws.l
        40          0          0          0          0         68   m_ws.l

    ----------------------------------------------------------------------
      6584        254        196          0         96       3724   Library Totals

    ----------------------------------------------------------------------

==============================================================================


      Code (inc. data)   RO Data    RW Data    ZI Data      Debug   

     10340        340        560         12       2204      56195   Grand Totals
     10340        340        560         12       2204      56195   ELF Image Totals
     10340        340        560         12          0          0   ROM Totals

==============================================================================

    Total RO  Size (Code + RO Data)                10900 (  10.64kB)
    Total RW  Size (RW Data + ZI Data)              2216 (   2.16kB)
    Total ROM Size (Code + RO Data + RW Data)      10912 (  10.66kB)

==============================================================================

